{"abi":[{"type":"constructor","inputs":[{"name":"initialBaseFundingFeeP","type":"uint256","internalType":"uint256"},{"name":"initialOpenFeeP","type":"uint256","internalType":"uint256"},{"name":"initialCloseFeeP","type":"uint256","internalType":"uint256"}],"stateMutability":"nonpayable"},{"type":"function","name":"baseFundingFeeP","inputs":[],"outputs":[{"name":"","type":"uint256","internalType":"uint256"}],"stateMutability":"view"},{"type":"function","name":"closeFeeP","inputs":[],"outputs":[{"name":"","type":"uint256","internalType":"uint256"}],"stateMutability":"view"},{"type":"function","name":"decreaseOpenInterest","inputs":[{"name":"amount","type":"uint256","internalType":"uint256"},{"name":"isLong","type":"bool","internalType":"bool"}],"outputs":[],"stateMutability":"nonpayable"},{"type":"function","name":"fundingFeePayers","inputs":[],"outputs":[{"name":"","type":"uint8","internalType":"enum IFees.Side"}],"stateMutability":"view"},{"type":"function","name":"getBaseFundingFeeP","inputs":[],"outputs":[{"name":"","type":"uint256","internalType":"uint256"}],"stateMutability":"view"},{"type":"function","name":"getCloseFeeP","inputs":[],"outputs":[{"name":"","type":"uint256","internalType":"uint256"}],"stateMutability":"view"},{"type":"function","name":"getFundingFeeP","inputs":[],"outputs":[{"name":"","type":"uint256","internalType":"uint256"},{"name":"","type":"uint8","internalType":"enum IFees.Side"}],"stateMutability":"view"},{"type":"function","name":"getOpenFeeP","inputs":[],"outputs":[{"name":"","type":"uint256","internalType":"uint256"}],"stateMutability":"view"},{"type":"function","name":"openFeeP","inputs":[],"outputs":[{"name":"","type":"uint256","internalType":"uint256"}],"stateMutability":"view"},{"type":"function","name":"owner","inputs":[],"outputs":[{"name":"","type":"address","internalType":"address"}],"stateMutability":"view"},{"type":"function","name":"renounceOwnership","inputs":[],"outputs":[],"stateMutability":"nonpayable"},{"type":"function","name":"setBaseFundingFeeP","inputs":[{"name":"newBaseFundingFeeP","type":"uint256","internalType":"uint256"}],"outputs":[],"stateMutability":"nonpayable"},{"type":"function","name":"setCloseFeeP","inputs":[{"name":"newCloseFeeP","type":"uint256","internalType":"uint256"}],"outputs":[],"stateMutability":"nonpayable"},{"type":"function","name":"setOpenFeeP","inputs":[{"name":"newOpenFeeP","type":"uint256","internalType":"uint256"}],"outputs":[],"stateMutability":"nonpayable"},{"type":"function","name":"totalOpenInterestLong","inputs":[],"outputs":[{"name":"","type":"uint256","internalType":"uint256"}],"stateMutability":"view"},{"type":"function","name":"totalOpenInterestShort","inputs":[],"outputs":[{"name":"","type":"uint256","internalType":"uint256"}],"stateMutability":"view"},{"type":"function","name":"transferOwnership","inputs":[{"name":"newOwner","type":"address","internalType":"address"}],"outputs":[],"stateMutability":"nonpayable"},{"type":"function","name":"updateOpenInterest","inputs":[{"name":"amount","type":"uint256","internalType":"uint256"},{"name":"isLong","type":"bool","internalType":"bool"}],"outputs":[],"stateMutability":"nonpayable"},{"type":"event","name":"BaseFundingFeePUpdated","inputs":[{"name":"newBaseFundingFeeP","type":"uint256","indexed":false,"internalType":"uint256"}],"anonymous":false},{"type":"event","name":"CloseFeePUpdated","inputs":[{"name":"newCloseFeeP","type":"uint256","indexed":false,"internalType":"uint256"}],"anonymous":false},{"type":"event","name":"FundingFeePayersSwitched","inputs":[{"name":"newFundingFeePayers","type":"uint8","indexed":false,"internalType":"enum IFees.Side"}],"anonymous":false},{"type":"event","name":"OpenFeePUpdated","inputs":[{"name":"newOpenFeeP","type":"uint256","indexed":false,"internalType":"uint256"}],"anonymous":false},{"type":"event","name":"OpenInterestUpdated","inputs":[{"name":"totalOpenInterestLong","type":"uint256","indexed":false,"internalType":"uint256"},{"name":"totalOpenInterestShort","type":"uint256","indexed":false,"internalType":"uint256"}],"anonymous":false},{"type":"event","name":"OwnershipTransferred","inputs":[{"name":"previousOwner","type":"address","indexed":true,"internalType":"address"},{"name":"newOwner","type":"address","indexed":true,"internalType":"address"}],"anonymous":false},{"type":"error","name":"OwnableInvalidOwner","inputs":[{"name":"owner","type":"address","internalType":"address"}]},{"type":"error","name":"OwnableUnauthorizedAccount","inputs":[{"name":"account","type":"address","internalType":"address"}]},{"type":"error","name":"ReentrancyGuardReentrantCall","inputs":[]}],"bytecode":{"object":"0x608060405234801561001057600080fd5b50604051610ab8380380610ab883398101604081905261002f916100ce565b338061005557604051631e4fbdf760e01b81526000600482015260240160405180910390fd5b61005e8161007e565b50600180556003929092556004556005556002805460ff191690556100fc565b600080546001600160a01b038381166001600160a01b0319831681178455604051919092169283917f8be0079c531659141344cd1fd0a4f28419497f9722a3daafe3b4186f6b6457e09190a35050565b6000806000606084860312156100e357600080fd5b5050815160208301516040909301519094929350919050565b6109ad8061010b6000396000f3fe608060405234801561001057600080fd5b50600436106101165760003560e01c8063ab906f1d116100a2578063c6bbfa9911610071578063c6bbfa99146101f3578063df374a9b1461013a578063f2962a091461014c578063f2fde38b146101fb578063f5aa00741461020e57600080fd5b8063ab906f1d146101ba578063b210ac7e14610197578063b4b99105146101cd578063be32e8fb146101e057600080fd5b8063715018a6116100e9578063715018a6146101695780637af87693146101715780637ea32244146101845780638445b3fd146101975780638da5cb5b1461019f57600080fd5b8063026e29641461011b5780633e3662161461013a578063519e1a501461014c578063532f669014610154575b600080fd5b610123610216565b604051610131929190610825565b60405180910390f35b6004545b604051908152602001610131565b60055461013e565b610167610162366004610840565b610379565b005b610167610417565b61016761017f366004610875565b61042b565b60025460ff16604051610131919061088e565b60035461013e565b6000546040516001600160a01b039091168152602001610131565b6101676101c8366004610840565b61049a565b6101676101db366004610875565b610569565b6101676101ee366004610875565b6105c8565b60065461013e565b6101676102093660046108a2565b610627565b60075461013e565b600080600060075460065461022b91906108e1565b90508060000361024057506000928392509050565b600081670de0b6b3a764000060065461025991906108f4565b610263919061090b565b9050600082670de0b6b3a764000060075461027e91906108f4565b610288919061090b565b9050600080828411156102e7576102a86002670de0b6b3a764000061090b565b6127106102be6002670de0b6b3a764000061090b565b6102c8908761092d565b6102d291906108f4565b6102dc919061090b565b915060009050610350565b83831115610341576103026002670de0b6b3a764000061090b565b6127106103186002670de0b6b3a764000061090b565b610322908661092d565b61032c91906108f4565b610336919061090b565b915060019050610350565b50600096879650945050505050565b60008260035461036091906108f4565b61036b9060646108f4565b989197509095505050505050565b610381610665565b80156103a457816006600082825461039991906108e1565b909155506103bc9050565b81600760008282546103b691906108e1565b90915550505b6103c461068f565b7fec9d3d15d27b45ec272eca821314dbc7dfac39e122618a8cbfb23ca99d19c883600654600754604051610402929190918252602082015260400190565b60405180910390a161041360018055565b5050565b61041f610770565b610429600061079d565b565b610433610770565b61271081111561045e5760405162461bcd60e51b815260040161045590610940565b60405180910390fd5b60058190556040518181527fc43fb9a8c4db20b9818cabcb71a464e155bb25040f532048a250352ca18704c4906020015b60405180910390a150565b6104a2610665565b8015610505576006548211156104f35760405162461bcd60e51b8152602060048201526016602482015275416d6f756e742065786365656473206c6f6e67204f4960501b6044820152606401610455565b8160066000828254610399919061092d565b6007548211156105575760405162461bcd60e51b815260206004820152601760248201527f416d6f756e7420657863656564732073686f7274204f490000000000000000006044820152606401610455565b81600760008282546103b6919061092d565b610571610770565b6127108111156105935760405162461bcd60e51b815260040161045590610940565b60048190556040518181527f56088de06ea86497ed65198a795afe166d91559710c20bc31aa5c35d91dae7359060200161048f565b6105d0610770565b6127108111156105f25760405162461bcd60e51b815260040161045590610940565b60038190556040518181527fb02904c2f6571f605d1465ed30034787b66ae6ae4d60f86de17eaaf6500865b59060200161048f565b61062f610770565b6001600160a01b03811661065957604051631e4fbdf760e01b815260006004820152602401610455565b6106628161079d565b50565b60026001540361068857604051633ee5aeb560e01b815260040160405180910390fd5b6002600155565b6007546006541180156106b95750600060025460ff1660018111156106b6576106b66107ed565b14155b15610703576002805460ff191690556040517f91637d14dca490556e5643d0af814d731d1068f6265cfa8657f2c71b593547a9906106f99060009061088e565b60405180910390a1565b60065460075411801561072d5750600160025460ff16600181111561072a5761072a6107ed565b14155b15610429576002805460ff191660019081179091556040517f91637d14dca490556e5643d0af814d731d1068f6265cfa8657f2c71b593547a9916106f99161088e565b6000546001600160a01b031633146104295760405163118cdaa760e01b8152336004820152602401610455565b600080546001600160a01b038381166001600160a01b0319831681178455604051919092169283917f8be0079c531659141344cd1fd0a4f28419497f9722a3daafe3b4186f6b6457e09190a35050565b634e487b7160e01b600052602160045260246000fd5b6002811061082157634e487b7160e01b600052602160045260246000fd5b9052565b828152604081016108396020830184610803565b9392505050565b6000806040838503121561085357600080fd5b823591506020830135801515811461086a57600080fd5b809150509250929050565b60006020828403121561088757600080fd5b5035919050565b6020810161089c8284610803565b92915050565b6000602082840312156108b457600080fd5b81356001600160a01b038116811461083957600080fd5b634e487b7160e01b600052601160045260246000fd5b8082018082111561089c5761089c6108cb565b808202811582820484141761089c5761089c6108cb565b60008261092857634e487b7160e01b600052601260045260246000fd5b500490565b8181038181111561089c5761089c6108cb565b60208082526017908201527f4665652070657263656e7461676520746f6f206869676800000000000000000060408201526060019056fea264697066735822122022934be84c1df3b8eec5a2502634d1960314e944e92e0b22888ccc80f294a9ee64736f6c634300081c0033","linkReferences":{}},"methodIdentifiers":{"baseFundingFeeP()":"b210ac7e","closeFeeP()":"f2962a09","decreaseOpenInterest(uint256,bool)":"ab906f1d","fundingFeePayers()":"7ea32244","getBaseFundingFeeP()":"8445b3fd","getCloseFeeP()":"519e1a50","getFundingFeeP()":"026e2964","getOpenFeeP()":"3e366216","openFeeP()":"df374a9b","owner()":"8da5cb5b","renounceOwnership()":"715018a6","setBaseFundingFeeP(uint256)":"be32e8fb","setCloseFeeP(uint256)":"7af87693","setOpenFeeP(uint256)":"b4b99105","totalOpenInterestLong()":"c6bbfa99","totalOpenInterestShort()":"f5aa0074","transferOwnership(address)":"f2fde38b","updateOpenInterest(uint256,bool)":"532f6690"},"id":54}