{"abi":[{"type":"constructor","inputs":[{"name":"_fees","type":"address","internalType":"address"},{"name":"_priceCacheDuration","type":"uint256","internalType":"uint256"},{"name":"_collateralDecimals","type":"uint256","internalType":"uint256"},{"name":"_maxLeverage","type":"uint256","internalType":"uint256"},{"name":"_initialBalance","type":"uint256","internalType":"uint256"}],"stateMutability":"nonpayable"},{"type":"receive","stateMutability":"payable"},{"type":"function","name":"activateAccount","inputs":[{"name":"_traderAddress","type":"address","internalType":"address"},{"name":"_collateralAmount","type":"uint256","internalType":"uint256"}],"outputs":[],"stateMutability":"nonpayable"},{"type":"function","name":"activateAccounts","inputs":[{"name":"_traderAddresses","type":"address[]","internalType":"address[]"},{"name":"_collateralAmounts","type":"uint256[]","internalType":"uint256[]"}],"outputs":[],"stateMutability":"nonpayable"},{"type":"function","name":"activated","inputs":[{"name":"","type":"address","internalType":"address"}],"outputs":[{"name":"","type":"bool","internalType":"bool"}],"stateMutability":"view"},{"type":"function","name":"addManager","inputs":[{"name":"_manager","type":"address","internalType":"address"}],"outputs":[],"stateMutability":"nonpayable"},{"type":"function","name":"allTrades","inputs":[{"name":"","type":"uint256","internalType":"uint256"}],"outputs":[{"name":"trader","type":"address","internalType":"address"},{"name":"collateralAmount","type":"uint256","internalType":"uint256"},{"name":"leverage","type":"uint256","internalType":"uint256"},{"name":"positionSize","type":"uint256","internalType":"uint256"},{"name":"price","type":"uint256","internalType":"uint256"},{"name":"timestamp","type":"uint256","internalType":"uint256"},{"name":"isLong","type":"bool","internalType":"bool"},{"name":"status","type":"uint8","internalType":"enum IStandaloneOrderBook.TradeStatus"},{"name":"tradeId","type":"uint256","internalType":"uint256"}],"stateMutability":"view"},{"type":"function","name":"balances","inputs":[{"name":"","type":"address","internalType":"address"}],"outputs":[{"name":"","type":"uint256","internalType":"uint256"}],"stateMutability":"view"},{"type":"function","name":"checkBalance","inputs":[],"outputs":[{"name":"","type":"uint256","internalType":"uint256"}],"stateMutability":"view"},{"type":"function","name":"closeTrade","inputs":[{"name":"_tradeId","type":"uint256","internalType":"uint256"},{"name":"_price","type":"uint256","internalType":"uint256"}],"outputs":[],"stateMutability":"nonpayable"},{"type":"function","name":"fees","inputs":[],"outputs":[{"name":"","type":"address","internalType":"contract IFees"}],"stateMutability":"view"},{"type":"function","name":"getAllTrades","inputs":[],"outputs":[{"name":"","type":"tuple[]","internalType":"struct IStandaloneOrderBook.Trade[]","components":[{"name":"trader","type":"address","internalType":"address"},{"name":"collateralAmount","type":"uint256","internalType":"uint256"},{"name":"leverage","type":"uint256","internalType":"uint256"},{"name":"positionSize","type":"uint256","internalType":"uint256"},{"name":"price","type":"uint256","internalType":"uint256"},{"name":"timestamp","type":"uint256","internalType":"uint256"},{"name":"isLong","type":"bool","internalType":"bool"},{"name":"status","type":"uint8","internalType":"enum IStandaloneOrderBook.TradeStatus"},{"name":"tradeId","type":"uint256","internalType":"uint256"}]}],"stateMutability":"view"},{"type":"function","name":"getBalance","inputs":[{"name":"_traderAddress","type":"address","internalType":"address"}],"outputs":[{"name":"","type":"uint256","internalType":"uint256"}],"stateMutability":"view"},{"type":"function","name":"getTrade","inputs":[{"name":"_tradeId","type":"uint256","internalType":"uint256"}],"outputs":[{"name":"","type":"tuple","internalType":"struct IStandaloneOrderBook.Trade","components":[{"name":"trader","type":"address","internalType":"address"},{"name":"collateralAmount","type":"uint256","internalType":"uint256"},{"name":"leverage","type":"uint256","internalType":"uint256"},{"name":"positionSize","type":"uint256","internalType":"uint256"},{"name":"price","type":"uint256","internalType":"uint256"},{"name":"timestamp","type":"uint256","internalType":"uint256"},{"name":"isLong","type":"bool","internalType":"bool"},{"name":"status","type":"uint8","internalType":"enum IStandaloneOrderBook.TradeStatus"},{"name":"tradeId","type":"uint256","internalType":"uint256"}]}],"stateMutability":"view"},{"type":"function","name":"openTrade","inputs":[{"name":"_collateralAmount","type":"uint256","internalType":"uint256"},{"name":"_leverage","type":"uint256","internalType":"uint256"},{"name":"_isLong","type":"bool","internalType":"bool"},{"name":"_price","type":"uint256","internalType":"uint256"}],"outputs":[],"stateMutability":"nonpayable"},{"type":"function","name":"owner","inputs":[],"outputs":[{"name":"","type":"address","internalType":"address"}],"stateMutability":"view"},{"type":"function","name":"removeManager","inputs":[{"name":"_manager","type":"address","internalType":"address"}],"outputs":[],"stateMutability":"nonpayable"},{"type":"function","name":"renounceOwnership","inputs":[],"outputs":[],"stateMutability":"nonpayable"},{"type":"function","name":"trades","inputs":[{"name":"","type":"uint256","internalType":"uint256"}],"outputs":[{"name":"trader","type":"address","internalType":"address"},{"name":"collateralAmount","type":"uint256","internalType":"uint256"},{"name":"leverage","type":"uint256","internalType":"uint256"},{"name":"positionSize","type":"uint256","internalType":"uint256"},{"name":"price","type":"uint256","internalType":"uint256"},{"name":"timestamp","type":"uint256","internalType":"uint256"},{"name":"isLong","type":"bool","internalType":"bool"},{"name":"status","type":"uint8","internalType":"enum IStandaloneOrderBook.TradeStatus"},{"name":"tradeId","type":"uint256","internalType":"uint256"}],"stateMutability":"view"},{"type":"function","name":"transferOwnership","inputs":[{"name":"newOwner","type":"address","internalType":"address"}],"outputs":[],"stateMutability":"nonpayable"},{"type":"function","name":"updateBalance","inputs":[{"name":"_traderAddress","type":"address","internalType":"address"},{"name":"_toAdd","type":"uint256","internalType":"uint256"}],"outputs":[],"stateMutability":"nonpayable"},{"type":"event","name":"AccountActivated","inputs":[{"name":"account","type":"address","indexed":true,"internalType":"address"}],"anonymous":false},{"type":"event","name":"BalanceUpdated","inputs":[{"name":"account","type":"address","indexed":true,"internalType":"address"},{"name":"newBalance","type":"uint256","indexed":false,"internalType":"uint256"}],"anonymous":false},{"type":"event","name":"ManagerAdded","inputs":[{"name":"manager","type":"address","indexed":true,"internalType":"address"}],"anonymous":false},{"type":"event","name":"ManagerRemoved","inputs":[{"name":"manager","type":"address","indexed":true,"internalType":"address"}],"anonymous":false},{"type":"event","name":"OwnershipTransferred","inputs":[{"name":"previousOwner","type":"address","indexed":true,"internalType":"address"},{"name":"newOwner","type":"address","indexed":true,"internalType":"address"}],"anonymous":false},{"type":"event","name":"TradeClosed","inputs":[{"name":"tradeId","type":"uint256","indexed":true,"internalType":"uint256"},{"name":"trader","type":"address","indexed":true,"internalType":"address"},{"name":"closedPositionSize","type":"uint256","indexed":false,"internalType":"uint256"},{"name":"price","type":"uint256","indexed":false,"internalType":"uint256"},{"name":"returnedCollateral","type":"uint256","indexed":false,"internalType":"uint256"}],"anonymous":false},{"type":"event","name":"TradeOpened","inputs":[{"name":"tradeId","type":"uint256","indexed":true,"internalType":"uint256"},{"name":"trader","type":"address","indexed":true,"internalType":"address"},{"name":"collateralAmount","type":"uint256","indexed":false,"internalType":"uint256"},{"name":"leverage","type":"uint256","indexed":false,"internalType":"uint256"},{"name":"positionSize","type":"uint256","indexed":false,"internalType":"uint256"},{"name":"price","type":"uint256","indexed":false,"internalType":"uint256"},{"name":"isLong","type":"bool","indexed":false,"internalType":"bool"}],"anonymous":false},{"type":"error","name":"OwnableInvalidOwner","inputs":[{"name":"owner","type":"address","internalType":"address"}]},{"type":"error","name":"OwnableUnauthorizedAccount","inputs":[{"name":"account","type":"address","internalType":"address"}]}],"bytecode":{"object":"0x608060405234801561001057600080fd5b50604051611dd8380380611dd883398101604081905261002f916100f1565b338061005557604051631e4fbdf760e01b81526000600482015260240160405180910390fd5b61005e816100a1565b50600180546001600160a01b0319166001600160a01b03969096169590951790945560079290925560085560095530600090815260066020526040902055610146565b600080546001600160a01b038381166001600160a01b0319831681178455604051919092169283917f8be0079c531659141344cd1fd0a4f28419497f9722a3daafe3b4186f6b6457e09190a35050565b600080600080600060a0868803121561010957600080fd5b85516001600160a01b038116811461012057600080fd5b602087015160408801516060890151608090990151929a91995097965090945092505050565b611c83806101556000396000f3fe6080604052600436106101185760003560e01c80638da5cb5b116100a0578063d938f7f311610064578063d938f7f3146103ae578063e0b1cccb146103ce578063f2fde38b146103ee578063f8b2cb4f1461040e578063fe4d8fe81461044457600080fd5b80638da5cb5b146102f85780639af1d35a1461032a578063ac18de431461034a578063c71daccb1461036a578063ce99c0ce1461038c57600080fd5b806347ca9c33116100e757806347ca9c33146102435780636ded970714610263578063715018a61461028357806373b1caa314610298578063779d8677146102b857600080fd5b80631e6c598e1461012457806327e235e3146101b95780632d06177a146101f45780632db25e051461021657600080fd5b3661011f57005b600080fd5b34801561013057600080fd5b5061019b61013f36600461182c565b6002602081905260009182526040909120805460018201549282015460038301546004840154600585015460068601546007909601546001600160a01b039095169695939492939192909160ff80821692610100909204169089565b6040516101b09998979695949392919061187d565b60405180910390f35b3480156101c557600080fd5b506101e66101d43660046118f7565b60066020526000908152604090205481565b6040519081526020016101b0565b34801561020057600080fd5b5061021461020f3660046118f7565b610464565b005b34801561022257600080fd5b5061023661023136600461182c565b610490565b6040516101b09190611982565b34801561024f57600080fd5b5061019b61025e36600461182c565b61054d565b34801561026f57600080fd5b5061021461027e366004611997565b6105ba565b34801561028f57600080fd5b50610214610bc9565b3480156102a457600080fd5b506102146102b33660046119db565b610bdd565b3480156102c457600080fd5b506102e86102d33660046118f7565b60056020526000908152604090205460ff1681565b60405190151581526020016101b0565b34801561030457600080fd5b506000546001600160a01b03165b6040516001600160a01b0390911681526020016101b0565b34801561033657600080fd5b50600154610312906001600160a01b031681565b34801561035657600080fd5b506102146103653660046118f7565b6111c0565b34801561037657600080fd5b50306000908152600660205260409020546101e6565b34801561039857600080fd5b506103a16111e9565b6040516101b091906119fd565b3480156103ba57600080fd5b506102146103c9366004611a4c565b6112dd565b3480156103da57600080fd5b506102146103e9366004611a4c565b6113fc565b3480156103fa57600080fd5b506102146104093660046118f7565b611535565b34801561041a57600080fd5b506101e66104293660046118f7565b6001600160a01b031660009081526006602052604090205490565b34801561045057600080fd5b5061021461045f366004611ac2565b611573565b61046c611747565b6001600160a01b03166000908152600460205260409020805460ff19166001179055565b6104986117c4565b60008281526002602081815260409283902083516101208101855281546001600160a01b0316815260018201549281019290925280830154938201939093526003830154606082015260048301546080820152600583015460a0820152600683015460ff808216151560c084015291939260e08501926101009092049091169081111561052757610527611845565b600281111561053857610538611845565b81526020016007820154815250509050919050565b6003818154811061055d57600080fd5b6000918252602090912060089091020180546001820154600283015460038401546004850154600586015460068701546007909701546001600160a01b0390961697509395929491939092909160ff808316926101009004169089565b6000831180156105cc57506009548311155b6106105760405162461bcd60e51b815260206004820152601060248201526f496e76616c6964206c6576657261676560801b60448201526064015b60405180910390fd5b600061061c8486611b49565b90506000600160009054906101000a90046001600160a01b03166001600160a01b0316633e3662166040518163ffffffff1660e01b8152600401602060405180830381865afa158015610673573d6000803e3d6000fd5b505050506040513d601f19601f820116820180604052508101906106979190611b60565b6106a390612710611b49565b60015460408051629b8a5960e21b8152815193945060009384936001600160a01b03169263026e296492600480820193918290030181865afa1580156106ed573d6000803e3d6000fd5b505050506040513d601f19601f820116820180604052508101906107119190611b79565b91509150816000146107955785801561073b5750600081600181111561073957610739611845565b145b156107515761074a8284611bae565b9250610795565b851580156107705750600181600181111561076e5761076e611845565b145b1561077f5761074a8284611bae565b8183106107905761074a8284611bc1565b600092505b60006127106107a48186611bd4565b6107ae9087611b49565b6107b89190611bd4565b905060006107c68287611bc1565b90506107d2828b611bae565b3360009081526006602052604090205410156108275760405162461bcd60e51b8152602060048201526014602482015273496e73756666696369656e742062616c616e636560601b6044820152606401610607565b6003546040805161012081018252338152602081018d90529081018b905260608101839052608081018990524260a082015289151560c082015260e0810160008152602090810183905260008381526002808352604091829020845181546001600160a01b0319166001600160a01b039091161781559284015160018401559083015182820155606083015160038301556080830151600483015560a0830151600583015560c083015160068301805460ff198116921515928317825560e086015193919261ffff1990911661ff0019909116179061010090849081111561091157610911611845565b02179055506101009182015160079091015560008281526002602081905260408220600380546001818101835594829052825460089091027fc2575a0e9e593c00f959f8c92f12db2869c3395a3b0502d05e2516446f71f85b810180546001600160a01b0319166001600160a01b03909316929092178255948301547fc2575a0e9e593c00f959f8c92f12db2869c3395a3b0502d05e2516446f71f85c860155828401547fc2575a0e9e593c00f959f8c92f12db2869c3395a3b0502d05e2516446f71f85d860155908201547fc2575a0e9e593c00f959f8c92f12db2869c3395a3b0502d05e2516446f71f85e85015560048201547fc2575a0e9e593c00f959f8c92f12db2869c3395a3b0502d05e2516446f71f85f85015560058201547fc2575a0e9e593c00f959f8c92f12db2869c3395a3b0502d05e2516446f71f8608501556006820180547fc2575a0e9e593c00f959f8c92f12db2869c3395a3b0502d05e2516446f71f861909501805460ff968716151560ff198216811783559254949793969484900490941694909361ff001990921661ffff199092169190911791908490811115610ac457610ac4611845565b0217905550600791820154910155600154604051630532f66960e41b8152600481018490528a151560248201526001600160a01b039091169063532f669090604401600060405180830381600087803b158015610b2057600080fd5b505af1158015610b34573d6000803e3d6000fd5b50505050828b610b449190611bae565b3360009081526006602052604081208054909190610b63908490611bc1565b9091555050604080518c8152602081018c9052908101839052606081018990528915156080820152339082907fc02af1b539b8ee86feac34b2c39a742c750dfd4ec0dbeff65f449a8860d806069060a00160405180910390a35050505050505050505050565b610bd1611747565b610bdb6000611774565b565b600082815260026020908152604080832033845260049092529091205460ff168080610c12575081546001600160a01b031633145b610c735760405162461bcd60e51b815260206004820152602c60248201527f4e6f7420746865207472616465206f776e6572206f7220616e20617574686f7260448201526b34bd32b21036b0b730b3b2b960a11b6064820152608401610607565b60016006830154610100900460ff166002811115610c9357610c93611845565b14158015610cbf575060026006830154610100900460ff166002811115610cbc57610cbc611845565b14155b610d025760405162461bcd60e51b8152602060048201526014602482015273151c98591948185b1c9958591e4818db1bdcd95960621b6044820152606401610607565b81546001600160a01b03163303610d785760068201805461ff001916610100179055600782015460038054600192908110610d3f57610d3f611bf6565b60009182526020909120600660089092020101805461ff001916610100836002811115610d6e57610d6e611845565b0217905550610dd9565b60068201805461ff001916610200179055600782015460038054600292908110610da457610da4611bf6565b60009182526020909120600660089092020101805461ff001916610100836002811115610dd357610dd3611845565b02179055505b6001546003830154600684015460405163ab906f1d60e01b8152600481019290925260ff16151560248201526001600160a01b039091169063ab906f1d90604401600060405180830381600087803b158015610e3457600080fd5b505af1158015610e48573d6000803e3d6000fd5b50505050600080836004015485118015610e665750600684015460ff165b80610e845750836004015485108015610e845750600684015460ff16155b15610eec5750600683015460019060ff1615610ed85760048401546003850154610eae8288611bc1565b610eb89190611b49565b610ec29190611bd4565b8460030154610ed19190611bae565b9150610f4b565b60048401546003850154610eae8783611bc1565b50600683015460009060ff1615610f115760048401546003850154610eae8783611bc1565b60048401546003850154610f258288611bc1565b610f2f9190611b49565b610f399190611bd4565b8460030154610f489190611bae565b91505b60015460408051630519e1a560e41b815290516000926001600160a01b03169163519e1a509160048083019260209291908290030181865afa158015610f95573d6000803e3d6000fd5b505050506040513d601f19601f82011682018060405250810190610fb99190611b60565b90508115610fef57612710818660030154610fd49190611b49565b610fde9190611bd4565b610fe89084611bc1565b9250611019565b6127108186600301546110029190611b49565b61100c9190611bd4565b6110169084611bae565b92505b81156110a6573060009081526006602052604090205483111561104e5760405162461bcd60e51b815260040161060790611c0c565b84546001600160a01b031660009081526006602052604081208054859290611077908490611bae565b9091555050306000908152600660205260408120805485929061109b908490611bc1565b909155506111629050565b84546001600160a01b031660009081526006602052604090205483111561110f5760405162461bcd60e51b815260206004820152601f60248201527f496e73756666696369656e742062616c616e636520666f7220747261646572006044820152606401610607565b84546001600160a01b031660009081526006602052604081208054859290611138908490611bc1565b9091555050306000908152600660205260408120805485929061115c908490611bae565b90915550505b84546003860154604080519182526020820189905281018590526001600160a01b039091169088907fde6cea522a9fa0b97ae4eacfb115f73ad7dfa1a72aaf825d46c57fb80dc8bc049060600160405180910390a350505050505050565b6111c8611747565b6001600160a01b03166000908152600460205260409020805460ff19169055565b60606003805480602002602001604051908101604052809291908181526020016000905b828210156112d457600084815260209081902060408051610120810182526008860290920180546001600160a01b03168352600181015493830193909352600280840154918301919091526003830154606083015260048301546080830152600583015460a0830152600683015460ff808216151560c085015292939260e085019261010090920416908111156112a6576112a6611845565b60028111156112b7576112b7611845565b81526020016007820154815250508152602001906001019061120d565b50505050905090565b6112e5611747565b6001600160a01b03821660009081526005602052604090205460ff161561134a5760405162461bcd60e51b81526020600482015260196024820152781058d8dbdd5b9d08185b1c9958591e481858dd1a5d985d1959603a1b6044820152606401610607565b306000908152600660205260409020548111156113795760405162461bcd60e51b815260040161060790611c0c565b6001600160a01b0382166000908152600560209081526040808320805460ff191660011790556006909152808220839055308252812080548392906113bf908490611bc1565b90915550506040516001600160a01b038316907fcfacdcf9289f1b69c533dda67fc14bae036114cd912d8f9fa9676e95d4ec028490600090a25050565b611404611747565b6001600160a01b03821660009081526005602052604090205460ff166114645760405162461bcd60e51b81526020600482015260156024820152741058d8dbdd5b9d081b9bdd081858dd1a5d985d1959605a1b6044820152606401610607565b306000908152600660205260409020548111156114935760405162461bcd60e51b815260040161060790611c0c565b6001600160a01b038216600090815260066020526040812080548392906114bb908490611bae565b909155505030600090815260066020526040812080548392906114df908490611bc1565b90915550506001600160a01b0382166000818152600660209081526040918290205491519182527f8ad64a0ac7700dd8425ab0499f107cb6e2cd1581d803c5b8c1c79dcb8190b1af910160405180910390a25050565b61153d611747565b6001600160a01b03811661156757604051631e4fbdf760e01b815260006004820152602401610607565b61157081611774565b50565b61157b611747565b8281146115ca5760405162461bcd60e51b815260206004820152601a60248201527f4172726179206c656e6774687320646f206e6f74206d617463680000000000006044820152606401610607565b8260005b8181101561173f5760008686838181106115ea576115ea611bf6565b90506020020160208101906115ff91906118f7565b9050600085858481811061161557611615611bf6565b6001600160a01b0385166000908152600560209081526040909120549102929092013592505060ff16156116875760405162461bcd60e51b81526020600482015260196024820152781058d8dbdd5b9d08185b1c9958591e481858dd1a5d985d1959603a1b6044820152606401610607565b306000908152600660205260409020548111156116b65760405162461bcd60e51b815260040161060790611c0c565b6001600160a01b0382166000908152600560209081526040808320805460ff191660011790556006909152808220839055308252812080548392906116fc908490611bc1565b90915550506040516001600160a01b038316907fcfacdcf9289f1b69c533dda67fc14bae036114cd912d8f9fa9676e95d4ec028490600090a250506001016115ce565b505050505050565b6000546001600160a01b03163314610bdb5760405163118cdaa760e01b8152336004820152602401610607565b600080546001600160a01b038381166001600160a01b0319831681178455604051919092169283917f8be0079c531659141344cd1fd0a4f28419497f9722a3daafe3b4186f6b6457e09190a35050565b60405180610120016040528060006001600160a01b0316815260200160008152602001600081526020016000815260200160008152602001600081526020016000151581526020016000600281111561181f5761181f611845565b8152602001600081525090565b60006020828403121561183e57600080fd5b5035919050565b634e487b7160e01b600052602160045260246000fd5b6003811061187957634e487b7160e01b600052602160045260246000fd5b9052565b6001600160a01b038a1681526020810189905260408101889052606081018790526080810186905260a0810185905283151560c082015261012081016118c660e083018561185b565b826101008301529a9950505050505050505050565b80356001600160a01b03811681146118f257600080fd5b919050565b60006020828403121561190957600080fd5b611912826118db565b9392505050565b60018060a01b0381511682526020810151602083015260408101516040830152606081015160608301526080810151608083015260a081015160a083015260c0810151151560c083015260e081015161197560e084018261185b565b5061010090810151910152565b61012081016119918284611919565b92915050565b600080600080608085870312156119ad57600080fd5b8435935060208501359250604085013580151581146119cb57600080fd5b9396929550929360600135925050565b600080604083850312156119ee57600080fd5b50508035926020909101359150565b602080825282518282018190526000918401906040840190835b81811015611a4157611a2a838551611919565b602093909301926101209290920191600101611a17565b509095945050505050565b60008060408385031215611a5f57600080fd5b611a68836118db565b946020939093013593505050565b60008083601f840112611a8857600080fd5b50813567ffffffffffffffff811115611aa057600080fd5b6020830191508360208260051b8501011115611abb57600080fd5b9250929050565b60008060008060408587031215611ad857600080fd5b843567ffffffffffffffff811115611aef57600080fd5b611afb87828801611a76565b909550935050602085013567ffffffffffffffff811115611b1b57600080fd5b611b2787828801611a76565b95989497509550505050565b634e487b7160e01b600052601160045260246000fd5b808202811582820484141761199157611991611b33565b600060208284031215611b7257600080fd5b5051919050565b60008060408385031215611b8c57600080fd5b8251602084015190925060028110611ba357600080fd5b809150509250929050565b8082018082111561199157611991611b33565b8181038181111561199157611991611b33565b600082611bf157634e487b7160e01b600052601260045260246000fd5b500490565b634e487b7160e01b600052603260045260246000fd5b60208082526021908201527f496e73756666696369656e742062616c616e636520696e204f72646572426f6f6040820152606b60f81b60608201526080019056fea2646970667358221220d1552d8abbf4b6830111e78e14df2e6b60c1751a80346c6a11a526536f63cf1164736f6c634300081c0033","linkReferences":{}},"methodIdentifiers":{"activateAccount(address,uint256)":"d938f7f3","activateAccounts(address[],uint256[])":"fe4d8fe8","activated(address)":"779d8677","addManager(address)":"2d06177a","allTrades(uint256)":"47ca9c33","balances(address)":"27e235e3","checkBalance()":"c71daccb","closeTrade(uint256,uint256)":"73b1caa3","fees()":"9af1d35a","getAllTrades()":"ce99c0ce","getBalance(address)":"f8b2cb4f","getTrade(uint256)":"2db25e05","openTrade(uint256,uint256,bool,uint256)":"6ded9707","owner()":"8da5cb5b","removeManager(address)":"ac18de43","renounceOwnership()":"715018a6","trades(uint256)":"1e6c598e","transferOwnership(address)":"f2fde38b","updateBalance(address,uint256)":"e0b1cccb"},"id":22}