{"abi":[{"type":"constructor","inputs":[{"name":"_fees","type":"address","internalType":"address"},{"name":"_priceCacheDuration","type":"uint256","internalType":"uint256"},{"name":"_collateralDecimals","type":"uint256","internalType":"uint256"},{"name":"_maxLeverage","type":"uint256","internalType":"uint256"},{"name":"_initialBalance","type":"uint256","internalType":"uint256"}],"stateMutability":"nonpayable"},{"type":"receive","stateMutability":"payable"},{"type":"function","name":"activateAccount","inputs":[{"name":"_traderAddress","type":"address","internalType":"address"},{"name":"_collateralAmount","type":"uint256","internalType":"uint256"}],"outputs":[],"stateMutability":"nonpayable"},{"type":"function","name":"activateAccounts","inputs":[{"name":"_traderAddresses","type":"address[]","internalType":"address[]"},{"name":"_collateralAmounts","type":"uint256[]","internalType":"uint256[]"}],"outputs":[],"stateMutability":"nonpayable"},{"type":"function","name":"activated","inputs":[{"name":"","type":"address","internalType":"address"}],"outputs":[{"name":"","type":"bool","internalType":"bool"}],"stateMutability":"view"},{"type":"function","name":"addManager","inputs":[{"name":"_manager","type":"address","internalType":"address"}],"outputs":[],"stateMutability":"nonpayable"},{"type":"function","name":"allTrades","inputs":[{"name":"","type":"uint256","internalType":"uint256"}],"outputs":[{"name":"tradeId","type":"uint256","internalType":"uint256"},{"name":"trader","type":"address","internalType":"address"},{"name":"collateralAmount","type":"uint256","internalType":"uint256"},{"name":"leverage","type":"uint256","internalType":"uint256"},{"name":"positionSize","type":"uint256","internalType":"uint256"},{"name":"openPrice","type":"uint256","internalType":"uint256"},{"name":"closePrice","type":"uint256","internalType":"uint256"},{"name":"openTimestamp","type":"uint256","internalType":"uint256"},{"name":"isLong","type":"bool","internalType":"bool"},{"name":"status","type":"uint8","internalType":"enum IStandaloneOrderBook.TradeStatus"},{"name":"didGain","type":"bool","internalType":"bool"},{"name":"pnl","type":"uint256","internalType":"uint256"}],"stateMutability":"view"},{"type":"function","name":"balances","inputs":[{"name":"","type":"address","internalType":"address"}],"outputs":[{"name":"","type":"uint256","internalType":"uint256"}],"stateMutability":"view"},{"type":"function","name":"checkBalance","inputs":[],"outputs":[{"name":"","type":"uint256","internalType":"uint256"}],"stateMutability":"view"},{"type":"function","name":"closeTrade","inputs":[{"name":"_tradeId","type":"uint256","internalType":"uint256"},{"name":"_price","type":"uint256","internalType":"uint256"}],"outputs":[],"stateMutability":"nonpayable"},{"type":"function","name":"fees","inputs":[],"outputs":[{"name":"","type":"address","internalType":"contract IFees"}],"stateMutability":"view"},{"type":"function","name":"getAllTrades","inputs":[],"outputs":[{"name":"","type":"tuple[]","internalType":"struct IStandaloneOrderBook.Trade[]","components":[{"name":"tradeId","type":"uint256","internalType":"uint256"},{"name":"trader","type":"address","internalType":"address"},{"name":"collateralAmount","type":"uint256","internalType":"uint256"},{"name":"leverage","type":"uint256","internalType":"uint256"},{"name":"positionSize","type":"uint256","internalType":"uint256"},{"name":"openPrice","type":"uint256","internalType":"uint256"},{"name":"closePrice","type":"uint256","internalType":"uint256"},{"name":"openTimestamp","type":"uint256","internalType":"uint256"},{"name":"isLong","type":"bool","internalType":"bool"},{"name":"status","type":"uint8","internalType":"enum IStandaloneOrderBook.TradeStatus"},{"name":"didGain","type":"bool","internalType":"bool"},{"name":"pnl","type":"uint256","internalType":"uint256"}]}],"stateMutability":"view"},{"type":"function","name":"getBalance","inputs":[{"name":"_traderAddress","type":"address","internalType":"address"}],"outputs":[{"name":"","type":"uint256","internalType":"uint256"}],"stateMutability":"view"},{"type":"function","name":"getTrade","inputs":[{"name":"_tradeId","type":"uint256","internalType":"uint256"}],"outputs":[{"name":"","type":"tuple","internalType":"struct IStandaloneOrderBook.Trade","components":[{"name":"tradeId","type":"uint256","internalType":"uint256"},{"name":"trader","type":"address","internalType":"address"},{"name":"collateralAmount","type":"uint256","internalType":"uint256"},{"name":"leverage","type":"uint256","internalType":"uint256"},{"name":"positionSize","type":"uint256","internalType":"uint256"},{"name":"openPrice","type":"uint256","internalType":"uint256"},{"name":"closePrice","type":"uint256","internalType":"uint256"},{"name":"openTimestamp","type":"uint256","internalType":"uint256"},{"name":"isLong","type":"bool","internalType":"bool"},{"name":"status","type":"uint8","internalType":"enum IStandaloneOrderBook.TradeStatus"},{"name":"didGain","type":"bool","internalType":"bool"},{"name":"pnl","type":"uint256","internalType":"uint256"}]}],"stateMutability":"view"},{"type":"function","name":"openTrade","inputs":[{"name":"_collateralAmount","type":"uint256","internalType":"uint256"},{"name":"_leverage","type":"uint256","internalType":"uint256"},{"name":"_isLong","type":"bool","internalType":"bool"},{"name":"_price","type":"uint256","internalType":"uint256"}],"outputs":[],"stateMutability":"nonpayable"},{"type":"function","name":"owner","inputs":[],"outputs":[{"name":"","type":"address","internalType":"address"}],"stateMutability":"view"},{"type":"function","name":"removeManager","inputs":[{"name":"_manager","type":"address","internalType":"address"}],"outputs":[],"stateMutability":"nonpayable"},{"type":"function","name":"renounceOwnership","inputs":[],"outputs":[],"stateMutability":"nonpayable"},{"type":"function","name":"trades","inputs":[{"name":"","type":"uint256","internalType":"uint256"}],"outputs":[{"name":"tradeId","type":"uint256","internalType":"uint256"},{"name":"trader","type":"address","internalType":"address"},{"name":"collateralAmount","type":"uint256","internalType":"uint256"},{"name":"leverage","type":"uint256","internalType":"uint256"},{"name":"positionSize","type":"uint256","internalType":"uint256"},{"name":"openPrice","type":"uint256","internalType":"uint256"},{"name":"closePrice","type":"uint256","internalType":"uint256"},{"name":"openTimestamp","type":"uint256","internalType":"uint256"},{"name":"isLong","type":"bool","internalType":"bool"},{"name":"status","type":"uint8","internalType":"enum IStandaloneOrderBook.TradeStatus"},{"name":"didGain","type":"bool","internalType":"bool"},{"name":"pnl","type":"uint256","internalType":"uint256"}],"stateMutability":"view"},{"type":"function","name":"transferOwnership","inputs":[{"name":"newOwner","type":"address","internalType":"address"}],"outputs":[],"stateMutability":"nonpayable"},{"type":"function","name":"updateBalance","inputs":[{"name":"_traderAddress","type":"address","internalType":"address"},{"name":"_toAdd","type":"uint256","internalType":"uint256"}],"outputs":[],"stateMutability":"nonpayable"},{"type":"event","name":"AccountActivated","inputs":[{"name":"account","type":"address","indexed":true,"internalType":"address"}],"anonymous":false},{"type":"event","name":"BalanceUpdated","inputs":[{"name":"account","type":"address","indexed":true,"internalType":"address"},{"name":"newBalance","type":"uint256","indexed":false,"internalType":"uint256"}],"anonymous":false},{"type":"event","name":"ManagerAdded","inputs":[{"name":"manager","type":"address","indexed":true,"internalType":"address"}],"anonymous":false},{"type":"event","name":"ManagerRemoved","inputs":[{"name":"manager","type":"address","indexed":true,"internalType":"address"}],"anonymous":false},{"type":"event","name":"OwnershipTransferred","inputs":[{"name":"previousOwner","type":"address","indexed":true,"internalType":"address"},{"name":"newOwner","type":"address","indexed":true,"internalType":"address"}],"anonymous":false},{"type":"event","name":"TradeClosed","inputs":[{"name":"tradeId","type":"uint256","indexed":true,"internalType":"uint256"},{"name":"trader","type":"address","indexed":true,"internalType":"address"},{"name":"closedPositionSize","type":"uint256","indexed":false,"internalType":"uint256"},{"name":"closePrice","type":"uint256","indexed":false,"internalType":"uint256"},{"name":"didGain","type":"bool","indexed":false,"internalType":"bool"},{"name":"pnl","type":"uint256","indexed":false,"internalType":"uint256"}],"anonymous":false},{"type":"event","name":"TradeOpened","inputs":[{"name":"tradeId","type":"uint256","indexed":true,"internalType":"uint256"},{"name":"trader","type":"address","indexed":true,"internalType":"address"},{"name":"collateralAmount","type":"uint256","indexed":false,"internalType":"uint256"},{"name":"leverage","type":"uint256","indexed":false,"internalType":"uint256"},{"name":"positionSize","type":"uint256","indexed":false,"internalType":"uint256"},{"name":"price","type":"uint256","indexed":false,"internalType":"uint256"},{"name":"isLong","type":"bool","indexed":false,"internalType":"bool"}],"anonymous":false},{"type":"error","name":"OwnableInvalidOwner","inputs":[{"name":"owner","type":"address","internalType":"address"}]},{"type":"error","name":"OwnableUnauthorizedAccount","inputs":[{"name":"account","type":"address","internalType":"address"}]}],"bytecode":{"object":"0x608060405234801561001057600080fd5b50604051611fd9380380611fd983398101604081905261002f916100f1565b338061005557604051631e4fbdf760e01b81526000600482015260240160405180910390fd5b61005e816100a1565b50600180546001600160a01b0319166001600160a01b03969096169590951790945560079290925560085560095530600090815260066020526040902055610146565b600080546001600160a01b038381166001600160a01b0319831681178455604051919092169283917f8be0079c531659141344cd1fd0a4f28419497f9722a3daafe3b4186f6b6457e09190a35050565b600080600080600060a0868803121561010957600080fd5b85516001600160a01b038116811461012057600080fd5b602087015160408801516060890151608090990151929a91995097965090945092505050565b611e84806101556000396000f3fe6080604052600436106101185760003560e01c80638da5cb5b116100a0578063d938f7f311610064578063d938f7f3146103c8578063e0b1cccb146103e8578063f2fde38b14610408578063f8b2cb4f14610428578063fe4d8fe81461045e57600080fd5b80638da5cb5b146103125780639af1d35a14610344578063ac18de4314610364578063c71daccb14610384578063ce99c0ce146103a657600080fd5b806347ca9c33116100e757806347ca9c331461025d5780636ded97071461027d578063715018a61461029d57806373b1caa3146102b2578063779d8677146102d257600080fd5b80631e6c598e1461012457806327e235e3146101d35780632d06177a1461020e5780632db25e051461023057600080fd5b3661011f57005b600080fd5b34801561013057600080fd5b506101b261013f3660046119d8565b6002602081905260009182526040909120805460018201549282015460038301546004840154600585015460068601546007870154600888015460099098015496986001600160a01b03169795969495939492939192909160ff808216926101008304821692620100009004909116908c565b6040516101ca9c9b9a99989796959493929190611a29565b60405180910390f35b3480156101df57600080fd5b506102006101ee366004611ab9565b60066020526000908152604090205481565b6040519081526020016101ca565b34801561021a57600080fd5b5061022e610229366004611ab9565b61047e565b005b34801561023c57600080fd5b5061025061024b3660046119d8565b6104aa565b6040516101ca9190611b83565b34801561026957600080fd5b506101b26102783660046119d8565b610590565b34801561028957600080fd5b5061022e610298366004611b98565b610615565b3480156102a957600080fd5b5061022e610cf0565b3480156102be57600080fd5b5061022e6102cd366004611bdc565b610d04565b3480156102de57600080fd5b506103026102ed366004611ab9565b60056020526000908152604090205460ff1681565b60405190151581526020016101ca565b34801561031e57600080fd5b506000546001600160a01b03165b6040516001600160a01b0390911681526020016101ca565b34801561035057600080fd5b5060015461032c906001600160a01b031681565b34801561037057600080fd5b5061022e61037f366004611ab9565b611326565b34801561039057600080fd5b5030600090815260066020526040902054610200565b3480156103b257600080fd5b506103bb61134f565b6040516101ca9190611bfe565b3480156103d457600080fd5b5061022e6103e3366004611c4d565b611474565b3480156103f457600080fd5b5061022e610403366004611c4d565b611593565b34801561041457600080fd5b5061022e610423366004611ab9565b6116cc565b34801561043457600080fd5b50610200610443366004611ab9565b6001600160a01b031660009081526006602052604090205490565b34801561046a57600080fd5b5061022e610479366004611cc3565b61170a565b6104866118de565b6001600160a01b03166000908152600460205260409020805460ff19166001179055565b6104b261195b565b6000828152600260208181526040928390208351610180810185528154815260018201546001600160a01b03169281019290925280830154938201939093526003830154606082015260048301546080820152600583015460a0820152600683015460c0820152600783015460e0820152600883015460ff8082161515610100808501919091529294936101208601939092041690811115610556576105566119f1565b6002811115610567576105676119f1565b8152600882015462010000900460ff161515602082015260099091015460409091015292915050565b600381815481106105a057600080fd5b60009182526020909120600a909102018054600182015460028301546003840154600485015460058601546006870154600788015460088901546009909901549799506001600160a01b0390961697949693959294919390929160ff808216926101008304821692620100009004909116908c565b60008311801561062757506009548311155b61066b5760405162461bcd60e51b815260206004820152601060248201526f496e76616c6964206c6576657261676560801b60448201526064015b60405180910390fd5b60006106778486611d4a565b90506000600160009054906101000a90046001600160a01b03166001600160a01b0316633e3662166040518163ffffffff1660e01b8152600401602060405180830381865afa1580156106ce573d6000803e3d6000fd5b505050506040513d601f19601f820116820180604052508101906106f29190611d61565b6106fe90612710611d4a565b60015460408051629b8a5960e21b8152815193945060009384936001600160a01b03169263026e296492600480820193918290030181865afa158015610748573d6000803e3d6000fd5b505050506040513d601f19601f8201168201806040525081019061076c9190611d7a565b91509150816000146107f05785801561079657506000816001811115610794576107946119f1565b145b156107ac576107a58284611daf565b92506107f0565b851580156107cb575060018160018111156107c9576107c96119f1565b145b156107da576107a58284611daf565b8183106107eb576107a58284611dc2565b600092505b60006127106107ff8186611dd5565b6108099087611d4a565b6108139190611dd5565b905060006108218287611dc2565b905061082d828b611daf565b3360009081526006602052604090205410156108825760405162461bcd60e51b8152602060048201526014602482015273496e73756666696369656e742062616c616e636560601b6044820152606401610662565b60035460408051610180810182528281523360208201529081018c9052606081018b90526080810183905260a08101899052600060c082018190524260e08301528a1515610100830152610120820190815260006020808301829052604092830182905284825260028082529183902084518155908401516001820180546001600160a01b0319166001600160a01b039092169190911790559183015182820155606083015160038301556080830151600483015560a0830151600583015560c0830151600683015560e083015160078301556101008084015160088401805460ff198116921515928317825561012087015194919361ffff1990911661ff0019909316929092179190849081111561099d5761099d6119f1565b021790555061014082015160088083018054921515620100000262ff0000199093169290921790915561016090920151600990910155600082815260026020819052604082206003805460018181018355948290528254600a9091027fc2575a0e9e593c00f959f8c92f12db2869c3395a3b0502d05e2516446f71f85b8101918255948301547fc2575a0e9e593c00f959f8c92f12db2869c3395a3b0502d05e2516446f71f85c860180546001600160a01b0319166001600160a01b03909216919091179055828401547fc2575a0e9e593c00f959f8c92f12db2869c3395a3b0502d05e2516446f71f85d860155908201547fc2575a0e9e593c00f959f8c92f12db2869c3395a3b0502d05e2516446f71f85e85015560048201547fc2575a0e9e593c00f959f8c92f12db2869c3395a3b0502d05e2516446f71f85f85015560058201547fc2575a0e9e593c00f959f8c92f12db2869c3395a3b0502d05e2516446f71f86085015560068201547fc2575a0e9e593c00f959f8c92f12db2869c3395a3b0502d05e2516446f71f86185015560078201547fc2575a0e9e593c00f959f8c92f12db2869c3395a3b0502d05e2516446f71f86285015593810180547fc2575a0e9e593c00f959f8c92f12db2869c3395a3b0502d05e2516446f71f863909401805460ff958616151560ff198216811783559254939695610100948590041694919361ff001990931661ffff199091161791908490811115610bc457610bc46119f1565b0217905550600882810154908201805462ff00001916620100009283900460ff161515909202919091179055600991820154910155600154604051630532f66960e41b8152600481018490528a151560248201526001600160a01b039091169063532f669090604401600060405180830381600087803b158015610c4757600080fd5b505af1158015610c5b573d6000803e3d6000fd5b50505050828b610c6b9190611daf565b3360009081526006602052604081208054909190610c8a908490611dc2565b9091555050604080518c8152602081018c9052908101839052606081018990528915156080820152339082907fc02af1b539b8ee86feac34b2c39a742c750dfd4ec0dbeff65f449a8860d806069060a00160405180910390a35050505050505050505050565b610cf86118de565b610d02600061190b565b565b600082815260026020908152604080832033845260049092529091205460ff168080610d3c575060018201546001600160a01b031633145b610d9d5760405162461bcd60e51b815260206004820152602c60248201527f4e6f7420746865207472616465206f776e6572206f7220616e20617574686f7260448201526b34bd32b21036b0b730b3b2b960a11b6064820152608401610662565b60016008830154610100900460ff166002811115610dbd57610dbd6119f1565b14158015610de9575060026008830154610100900460ff166002811115610de657610de66119f1565b14155b610e2c5760405162461bcd60e51b8152602060048201526014602482015273151c98591948185b1c9958591e4818db1bdcd95960621b6044820152606401610662565b60018201546001600160a01b03163303610ea25760088201805461ff001916610100179055815460038054600192908110610e6957610e69611df7565b600091825260209091206008600a9092020101805461ff001916610100836002811115610e9857610e986119f1565b0217905550610f00565b60088201805461ff001916610200179055815460038054600292908110610ecb57610ecb611df7565b600091825260209091206008600a9092020101805461ff001916610100836002811115610efa57610efa6119f1565b02179055505b60068201839055600154600480840154600885015460405163ab906f1d60e01b81529283019190915260ff16151560248201526001600160a01b039091169063ab906f1d90604401600060405180830381600087803b158015610f6257600080fd5b505af1158015610f76573d6000803e3d6000fd5b50505050600080836005015485118015610f945750600884015460ff165b80610fb25750836005015485108015610fb25750600884015460ff16155b1561101a5750600883015460019060ff16156110065760058401546004850154610fdc8288611dc2565b610fe69190611d4a565b610ff09190611dd5565b8460040154610fff9190611daf565b9150611079565b60058401546004850154610fdc8783611dc2565b50600883015460009060ff161561103f5760058401546004850154610fdc8783611dc2565b600584015460048501546110538288611dc2565b61105d9190611d4a565b6110679190611dd5565b84600401546110769190611daf565b91505b60015460408051630519e1a560e41b815290516000926001600160a01b03169163519e1a509160048083019260209291908290030181865afa1580156110c3573d6000803e3d6000fd5b505050506040513d601f19601f820116820180604052508101906110e79190611d61565b9050811561111d576127108186600401546111029190611d4a565b61110c9190611dd5565b6111169084611dc2565b9250611147565b6127108186600401546111309190611d4a565b61113a9190611dd5565b6111449084611daf565b92505b60088501805483158015620100000262ff00001990921691909117909155600986018490556111fa573060009081526006602052604090205483111561119f5760405162461bcd60e51b815260040161066290611e0d565b60018501546001600160a01b0316600090815260066020526040812080548592906111cb908490611daf565b909155505030600090815260066020526040812080548592906111ef908490611dc2565b909155506112bc9050565b60018501546001600160a01b03166000908152600660205260409020548311156112665760405162461bcd60e51b815260206004820152601f60248201527f496e73756666696369656e742062616c616e636520666f7220747261646572006044820152606401610662565b60018501546001600160a01b031660009081526006602052604081208054859290611292908490611dc2565b909155505030600090815260066020526040812080548592906112b6908490611daf565b90915550505b60018501546004860154604080519182526020820189905284151590820152606081018590526001600160a01b039091169088907fe722e9dab38bcf77edf9c7ade06813177f610c60f5ec8317176762f81a63e0899060800160405180910390a350505050505050565b61132e6118de565b6001600160a01b03166000908152600460205260409020805460ff19169055565b60606003805480602002602001604051908101604052809291908181526020016000905b8282101561146b5760008481526020908190206040805161018081018252600a86029092018054835260018101546001600160a01b031693830193909352600280840154918301919091526003830154606083015260048301546080830152600583015460a0830152600683015460c0830152600783015460e0830152600883015460ff80821615156101008086019190915293949361012086019392041690811115611422576114226119f1565b6002811115611433576114336119f1565b81526020016008820160029054906101000a900460ff1615151515815260200160098201548152505081526020019060010190611373565b50505050905090565b61147c6118de565b6001600160a01b03821660009081526005602052604090205460ff16156114e15760405162461bcd60e51b81526020600482015260196024820152781058d8dbdd5b9d08185b1c9958591e481858dd1a5d985d1959603a1b6044820152606401610662565b306000908152600660205260409020548111156115105760405162461bcd60e51b815260040161066290611e0d565b6001600160a01b0382166000908152600560209081526040808320805460ff19166001179055600690915280822083905530825281208054839290611556908490611dc2565b90915550506040516001600160a01b038316907fcfacdcf9289f1b69c533dda67fc14bae036114cd912d8f9fa9676e95d4ec028490600090a25050565b61159b6118de565b6001600160a01b03821660009081526005602052604090205460ff166115fb5760405162461bcd60e51b81526020600482015260156024820152741058d8dbdd5b9d081b9bdd081858dd1a5d985d1959605a1b6044820152606401610662565b3060009081526006602052604090205481111561162a5760405162461bcd60e51b815260040161066290611e0d565b6001600160a01b03821660009081526006602052604081208054839290611652908490611daf565b90915550503060009081526006602052604081208054839290611676908490611dc2565b90915550506001600160a01b0382166000818152600660209081526040918290205491519182527f8ad64a0ac7700dd8425ab0499f107cb6e2cd1581d803c5b8c1c79dcb8190b1af910160405180910390a25050565b6116d46118de565b6001600160a01b0381166116fe57604051631e4fbdf760e01b815260006004820152602401610662565b6117078161190b565b50565b6117126118de565b8281146117615760405162461bcd60e51b815260206004820152601a60248201527f4172726179206c656e6774687320646f206e6f74206d617463680000000000006044820152606401610662565b8260005b818110156118d657600086868381811061178157611781611df7565b90506020020160208101906117969190611ab9565b905060008585848181106117ac576117ac611df7565b6001600160a01b0385166000908152600560209081526040909120549102929092013592505060ff161561181e5760405162461bcd60e51b81526020600482015260196024820152781058d8dbdd5b9d08185b1c9958591e481858dd1a5d985d1959603a1b6044820152606401610662565b3060009081526006602052604090205481111561184d5760405162461bcd60e51b815260040161066290611e0d565b6001600160a01b0382166000908152600560209081526040808320805460ff19166001179055600690915280822083905530825281208054839290611893908490611dc2565b90915550506040516001600160a01b038316907fcfacdcf9289f1b69c533dda67fc14bae036114cd912d8f9fa9676e95d4ec028490600090a25050600101611765565b505050505050565b6000546001600160a01b03163314610d025760405163118cdaa760e01b8152336004820152602401610662565b600080546001600160a01b038381166001600160a01b0319831681178455604051919092169283917f8be0079c531659141344cd1fd0a4f28419497f9722a3daafe3b4186f6b6457e09190a35050565b6040518061018001604052806000815260200160006001600160a01b03168152602001600081526020016000815260200160008152602001600081526020016000815260200160008152602001600015158152602001600060028111156119c4576119c46119f1565b815260006020820181905260409091015290565b6000602082840312156119ea57600080fd5b5035919050565b634e487b7160e01b600052602160045260246000fd5b60038110611a2557634e487b7160e01b600052602160045260246000fd5b9052565b8c81526001600160a01b038c166020820152604081018b9052606081018a90526080810189905260a0810188905260c0810187905260e081018690528415156101008201526101808101611a81610120830186611a07565b92151561014082015261016001529a9950505050505050505050565b80356001600160a01b0381168114611ab457600080fd5b919050565b600060208284031215611acb57600080fd5b611ad482611a9d565b9392505050565b805182526020810151611af960208401826001600160a01b03169052565b5060408101516040830152606081015160608301526080810151608083015260a081015160a083015260c081015160c083015260e081015160e0830152610100810151611b4b61010084018215159052565b50610120810151611b60610120840182611a07565b50610140810151611b7661014084018215159052565b5061016090810151910152565b6101808101611b928284611adb565b92915050565b60008060008060808587031215611bae57600080fd5b843593506020850135925060408501358015158114611bcc57600080fd5b9396929550929360600135925050565b60008060408385031215611bef57600080fd5b50508035926020909101359150565b602080825282518282018190526000918401906040840190835b81811015611c4257611c2b838551611adb565b602093909301926101809290920191600101611c18565b509095945050505050565b60008060408385031215611c6057600080fd5b611c6983611a9d565b946020939093013593505050565b60008083601f840112611c8957600080fd5b50813567ffffffffffffffff811115611ca157600080fd5b6020830191508360208260051b8501011115611cbc57600080fd5b9250929050565b60008060008060408587031215611cd957600080fd5b843567ffffffffffffffff811115611cf057600080fd5b611cfc87828801611c77565b909550935050602085013567ffffffffffffffff811115611d1c57600080fd5b611d2887828801611c77565b95989497509550505050565b634e487b7160e01b600052601160045260246000fd5b8082028115828204841417611b9257611b92611d34565b600060208284031215611d7357600080fd5b5051919050565b60008060408385031215611d8d57600080fd5b8251602084015190925060028110611da457600080fd5b809150509250929050565b80820180821115611b9257611b92611d34565b81810381811115611b9257611b92611d34565b600082611df257634e487b7160e01b600052601260045260246000fd5b500490565b634e487b7160e01b600052603260045260246000fd5b60208082526021908201527f496e73756666696369656e742062616c616e636520696e204f72646572426f6f6040820152606b60f81b60608201526080019056fea26469706673582212200af6fcbedafdc70c3359c488846268145c1741af249eaececdfec24eba076bfc64736f6c634300081c0033","linkReferences":{}},"methodIdentifiers":{"activateAccount(address,uint256)":"d938f7f3","activateAccounts(address[],uint256[])":"fe4d8fe8","activated(address)":"779d8677","addManager(address)":"2d06177a","allTrades(uint256)":"47ca9c33","balances(address)":"27e235e3","checkBalance()":"c71daccb","closeTrade(uint256,uint256)":"73b1caa3","fees()":"9af1d35a","getAllTrades()":"ce99c0ce","getBalance(address)":"f8b2cb4f","getTrade(uint256)":"2db25e05","openTrade(uint256,uint256,bool,uint256)":"6ded9707","owner()":"8da5cb5b","removeManager(address)":"ac18de43","renounceOwnership()":"715018a6","trades(uint256)":"1e6c598e","transferOwnership(address)":"f2fde38b","updateBalance(address,uint256)":"e0b1cccb"},"id":45}