{
  "abi": [
    {
      "type": "constructor",
      "inputs": [
        {
          "name": "_fees",
          "type": "address",
          "internalType": "address"
        },
        {
          "name": "_priceCacheDuration",
          "type": "uint256",
          "internalType": "uint256"
        },
        {
          "name": "_collateralAsset",
          "type": "address",
          "internalType": "address"
        },
        {
          "name": "_collateralDecimals",
          "type": "uint256",
          "internalType": "uint256"
        },
        {
          "name": "_maxLeverage",
          "type": "uint256",
          "internalType": "uint256"
        }
      ],
      "stateMutability": "nonpayable"
    },
    {
      "type": "receive",
      "stateMutability": "payable"
    },
    {
      "type": "function",
      "name": "addManager",
      "inputs": [
        {
          "name": "_manager",
          "type": "address",
          "internalType": "address"
        }
      ],
      "outputs": [],
      "stateMutability": "nonpayable"
    },
    {
      "type": "function",
      "name": "allTrades",
      "inputs": [
        {
          "name": "",
          "type": "uint256",
          "internalType": "uint256"
        }
      ],
      "outputs": [
        {
          "name": "trader",
          "type": "address",
          "internalType": "address"
        },
        {
          "name": "collateralAmount",
          "type": "uint256",
          "internalType": "uint256"
        },
        {
          "name": "leverage",
          "type": "uint256",
          "internalType": "uint256"
        },
        {
          "name": "positionSize",
          "type": "uint256",
          "internalType": "uint256"
        },
        {
          "name": "price",
          "type": "uint256",
          "internalType": "uint256"
        },
        {
          "name": "timestamp",
          "type": "uint256",
          "internalType": "uint256"
        },
        {
          "name": "isLong",
          "type": "bool",
          "internalType": "bool"
        },
        {
          "name": "status",
          "type": "uint8",
          "internalType": "enum IOrderBook.TradeStatus"
        },
        {
          "name": "tradeId",
          "type": "uint256",
          "internalType": "uint256"
        }
      ],
      "stateMutability": "view"
    },
    {
      "type": "function",
      "name": "closeTrade",
      "inputs": [
        {
          "name": "_tradeId",
          "type": "uint256",
          "internalType": "uint256"
        },
        {
          "name": "_price",
          "type": "uint256",
          "internalType": "uint256"
        }
      ],
      "outputs": [],
      "stateMutability": "nonpayable"
    },
    {
      "type": "function",
      "name": "collateralAsset",
      "inputs": [],
      "outputs": [
        {
          "name": "",
          "type": "address",
          "internalType": "contract IERC20"
        }
      ],
      "stateMutability": "view"
    },
    {
      "type": "function",
      "name": "fees",
      "inputs": [],
      "outputs": [
        {
          "name": "",
          "type": "address",
          "internalType": "contract IFees"
        }
      ],
      "stateMutability": "view"
    },
    {
      "type": "function",
      "name": "getAllTrades",
      "inputs": [],
      "outputs": [
        {
          "name": "",
          "type": "tuple[]",
          "internalType": "struct IOrderBook.Trade[]",
          "components": [
            {
              "name": "trader",
              "type": "address",
              "internalType": "address"
            },
            {
              "name": "collateralAmount",
              "type": "uint256",
              "internalType": "uint256"
            },
            {
              "name": "leverage",
              "type": "uint256",
              "internalType": "uint256"
            },
            {
              "name": "positionSize",
              "type": "uint256",
              "internalType": "uint256"
            },
            {
              "name": "price",
              "type": "uint256",
              "internalType": "uint256"
            },
            {
              "name": "timestamp",
              "type": "uint256",
              "internalType": "uint256"
            },
            {
              "name": "isLong",
              "type": "bool",
              "internalType": "bool"
            },
            {
              "name": "status",
              "type": "uint8",
              "internalType": "enum IOrderBook.TradeStatus"
            },
            {
              "name": "tradeId",
              "type": "uint256",
              "internalType": "uint256"
            }
          ]
        }
      ],
      "stateMutability": "view"
    },
    {
      "type": "function",
      "name": "getTrade",
      "inputs": [
        {
          "name": "_tradeId",
          "type": "uint256",
          "internalType": "uint256"
        }
      ],
      "outputs": [
        {
          "name": "",
          "type": "tuple",
          "internalType": "struct IOrderBook.Trade",
          "components": [
            {
              "name": "trader",
              "type": "address",
              "internalType": "address"
            },
            {
              "name": "collateralAmount",
              "type": "uint256",
              "internalType": "uint256"
            },
            {
              "name": "leverage",
              "type": "uint256",
              "internalType": "uint256"
            },
            {
              "name": "positionSize",
              "type": "uint256",
              "internalType": "uint256"
            },
            {
              "name": "price",
              "type": "uint256",
              "internalType": "uint256"
            },
            {
              "name": "timestamp",
              "type": "uint256",
              "internalType": "uint256"
            },
            {
              "name": "isLong",
              "type": "bool",
              "internalType": "bool"
            },
            {
              "name": "status",
              "type": "uint8",
              "internalType": "enum IOrderBook.TradeStatus"
            },
            {
              "name": "tradeId",
              "type": "uint256",
              "internalType": "uint256"
            }
          ]
        }
      ],
      "stateMutability": "view"
    },
    {
      "type": "function",
      "name": "openTrade",
      "inputs": [
        {
          "name": "_collateralAmount",
          "type": "uint256",
          "internalType": "uint256"
        },
        {
          "name": "_leverage",
          "type": "uint256",
          "internalType": "uint256"
        },
        {
          "name": "_isLong",
          "type": "bool",
          "internalType": "bool"
        },
        {
          "name": "_price",
          "type": "uint256",
          "internalType": "uint256"
        }
      ],
      "outputs": [],
      "stateMutability": "nonpayable"
    },
    {
      "type": "function",
      "name": "owner",
      "inputs": [],
      "outputs": [
        {
          "name": "",
          "type": "address",
          "internalType": "address"
        }
      ],
      "stateMutability": "view"
    },
    {
      "type": "function",
      "name": "removeManager",
      "inputs": [
        {
          "name": "_manager",
          "type": "address",
          "internalType": "address"
        }
      ],
      "outputs": [],
      "stateMutability": "nonpayable"
    },
    {
      "type": "function",
      "name": "renounceOwnership",
      "inputs": [],
      "outputs": [],
      "stateMutability": "nonpayable"
    },
    {
      "type": "function",
      "name": "trades",
      "inputs": [
        {
          "name": "",
          "type": "uint256",
          "internalType": "uint256"
        }
      ],
      "outputs": [
        {
          "name": "trader",
          "type": "address",
          "internalType": "address"
        },
        {
          "name": "collateralAmount",
          "type": "uint256",
          "internalType": "uint256"
        },
        {
          "name": "leverage",
          "type": "uint256",
          "internalType": "uint256"
        },
        {
          "name": "positionSize",
          "type": "uint256",
          "internalType": "uint256"
        },
        {
          "name": "price",
          "type": "uint256",
          "internalType": "uint256"
        },
        {
          "name": "timestamp",
          "type": "uint256",
          "internalType": "uint256"
        },
        {
          "name": "isLong",
          "type": "bool",
          "internalType": "bool"
        },
        {
          "name": "status",
          "type": "uint8",
          "internalType": "enum IOrderBook.TradeStatus"
        },
        {
          "name": "tradeId",
          "type": "uint256",
          "internalType": "uint256"
        }
      ],
      "stateMutability": "view"
    },
    {
      "type": "function",
      "name": "transferOwnership",
      "inputs": [
        {
          "name": "newOwner",
          "type": "address",
          "internalType": "address"
        }
      ],
      "outputs": [],
      "stateMutability": "nonpayable"
    },
    {
      "type": "event",
      "name": "ManagerAdded",
      "inputs": [
        {
          "name": "manager",
          "type": "address",
          "indexed": true,
          "internalType": "address"
        }
      ],
      "anonymous": false
    },
    {
      "type": "event",
      "name": "ManagerRemoved",
      "inputs": [
        {
          "name": "manager",
          "type": "address",
          "indexed": true,
          "internalType": "address"
        }
      ],
      "anonymous": false
    },
    {
      "type": "event",
      "name": "OwnershipTransferred",
      "inputs": [
        {
          "name": "previousOwner",
          "type": "address",
          "indexed": true,
          "internalType": "address"
        },
        {
          "name": "newOwner",
          "type": "address",
          "indexed": true,
          "internalType": "address"
        }
      ],
      "anonymous": false
    },
    {
      "type": "event",
      "name": "TradeClosed",
      "inputs": [
        {
          "name": "tradeId",
          "type": "uint256",
          "indexed": true,
          "internalType": "uint256"
        },
        {
          "name": "trader",
          "type": "address",
          "indexed": true,
          "internalType": "address"
        },
        {
          "name": "closedPositionSize",
          "type": "uint256",
          "indexed": false,
          "internalType": "uint256"
        },
        {
          "name": "price",
          "type": "uint256",
          "indexed": false,
          "internalType": "uint256"
        },
        {
          "name": "returnedCollateral",
          "type": "uint256",
          "indexed": false,
          "internalType": "uint256"
        }
      ],
      "anonymous": false
    },
    {
      "type": "event",
      "name": "TradeOpened",
      "inputs": [
        {
          "name": "tradeId",
          "type": "uint256",
          "indexed": true,
          "internalType": "uint256"
        },
        {
          "name": "trader",
          "type": "address",
          "indexed": true,
          "internalType": "address"
        },
        {
          "name": "collateralAmount",
          "type": "uint256",
          "indexed": false,
          "internalType": "uint256"
        },
        {
          "name": "leverage",
          "type": "uint256",
          "indexed": false,
          "internalType": "uint256"
        },
        {
          "name": "positionSize",
          "type": "uint256",
          "indexed": false,
          "internalType": "uint256"
        },
        {
          "name": "price",
          "type": "uint256",
          "indexed": false,
          "internalType": "uint256"
        },
        {
          "name": "isLong",
          "type": "bool",
          "indexed": false,
          "internalType": "bool"
        }
      ],
      "anonymous": false
    },
    {
      "type": "error",
      "name": "AddressEmptyCode",
      "inputs": [
        {
          "name": "target",
          "type": "address",
          "internalType": "address"
        }
      ]
    },
    {
      "type": "error",
      "name": "AddressInsufficientBalance",
      "inputs": [
        {
          "name": "account",
          "type": "address",
          "internalType": "address"
        }
      ]
    },
    {
      "type": "error",
      "name": "FailedInnerCall",
      "inputs": []
    },
    {
      "type": "error",
      "name": "OwnableInvalidOwner",
      "inputs": [
        {
          "name": "owner",
          "type": "address",
          "internalType": "address"
        }
      ]
    },
    {
      "type": "error",
      "name": "OwnableUnauthorizedAccount",
      "inputs": [
        {
          "name": "account",
          "type": "address",
          "internalType": "address"
        }
      ]
    },
    {
      "type": "error",
      "name": "SafeERC20FailedOperation",
      "inputs": [
        {
          "name": "token",
          "type": "address",
          "internalType": "address"
        }
      ]
    }
  ],
  "bytecode": {
    "object": "0x608060405234801561001057600080fd5b50604051611a4b380380611a4b83398101604081905261002f9161010d565b338061005557604051631e4fbdf760e01b81526000600482015260240160405180910390fd5b61005e816100a1565b50600280546001600160a01b03199081166001600160a01b039788161790915560069490945560018054909416929094169190911790915560075560085561015d565b600080546001600160a01b038381166001600160a01b0319831681178455604051919092169283917f8be0079c531659141344cd1fd0a4f28419497f9722a3daafe3b4186f6b6457e09190a35050565b80516001600160a01b038116811461010857600080fd5b919050565b600080600080600060a0868803121561012557600080fd5b61012e866100f1565b60208701519095509350610144604087016100f1565b6060870151608090970151959894975095949392505050565b6118df8061016c6000396000f3fe6080604052600436106100c65760003560e01c806373b1caa31161007f578063aabaecd611610059578063aabaecd61461027e578063ac18de431461029e578063ce99c0ce146102be578063f2fde38b146102e057600080fd5b806373b1caa31461020c5780638da5cb5b1461022c5780639af1d35a1461025e57600080fd5b80631e6c598e146100d25780632d06177a146101685780632db25e051461018a57806347ca9c33146101b75780636ded9707146101d7578063715018a6146101f757600080fd5b366100cd57005b600080fd5b3480156100de57600080fd5b5061014a6100ed366004611576565b6003602081905260009182526040909120805460018201546002830154938301546004840154600585015460068601546007909601546001600160a01b03909516969395939492939192909160ff80821692610100909204169089565b60405161015f999897969594939291906115c7565b60405180910390f35b34801561017457600080fd5b50610188610183366004611625565b610300565b005b34801561019657600080fd5b506101aa6101a5366004611576565b61032c565b60405161015f91906116b7565b3480156101c357600080fd5b5061014a6101d2366004611576565b6103e9565b3480156101e357600080fd5b506101886101f23660046116d4565b610456565b34801561020357600080fd5b50610188610abe565b34801561021857600080fd5b50610188610227366004611713565b610ad2565b34801561023857600080fd5b506000546001600160a01b03165b6040516001600160a01b03909116815260200161015f565b34801561026a57600080fd5b50600254610246906001600160a01b031681565b34801561028a57600080fd5b50600154610246906001600160a01b031681565b3480156102aa57600080fd5b506101886102b9366004611625565b6110f5565b3480156102ca57600080fd5b506102d361111e565b60405161015f9190611735565b3480156102ec57600080fd5b506101886102fb366004611625565b611212565b610308611250565b6001600160a01b03166000908152600560205260409020805460ff19166001179055565b61033461150e565b60008281526003602081815260409283902083516101208101855281546001600160a01b031681526001820154928101929092526002808201549483019490945291820154606082015260048201546080820152600582015460a0820152600682015460ff808216151560c0840152919360e0850192610100909204909116908111156103c3576103c361158f565b60028111156103d4576103d461158f565b81526020016007820154815250509050919050565b600481815481106103f957600080fd5b6000918252602090912060089091020180546001820154600283015460038401546004850154600586015460068701546007909701546001600160a01b0390961697509395929491939092909160ff808316926101009004169089565b60008311801561046857506008548311155b6104ac5760405162461bcd60e51b815260206004820152601060248201526f496e76616c6964206c6576657261676560801b60448201526064015b60405180910390fd5b60006104b8848661179a565b90506000600260009054906101000a90046001600160a01b03166001600160a01b0316633e3662166040518163ffffffff1660e01b8152600401602060405180830381865afa15801561050f573d6000803e3d6000fd5b505050506040513d601f19601f8201168201806040525081019061053391906117b1565b61053f9061271061179a565b60025460408051629b8a5960e21b8152815193945060009384936001600160a01b03169263026e296492600480820193918290030181865afa158015610589573d6000803e3d6000fd5b505050506040513d601f19601f820116820180604052508101906105ad91906117ca565b9150915081600014610631578580156105d7575060008160018111156105d5576105d561158f565b145b156105ed576105e682846117ff565b9250610631565b8515801561060c5750600181600181111561060a5761060a61158f565b145b1561061b576105e682846117ff565b81831061062c576105e68284611812565b600092505b60006127106106408186611825565b61064a908761179a565b6106549190611825565b905060006106628287611812565b905061066e828b6117ff565b6001546040516370a0823160e01b81523360048201526001600160a01b03909116906370a0823190602401602060405180830381865afa1580156106b6573d6000803e3d6000fd5b505050506040513d601f19601f820116820180604052508101906106da91906117b1565b101561071f5760405162461bcd60e51b8152602060048201526014602482015273496e73756666696369656e742062616c616e636560601b60448201526064016104a3565b6004546040805161012081018252338152602081018d90529081018b905260608101839052608081018990524260a082015289151560c082015260e0810160008152602090810183905260008381526003808352604091829020845181546001600160a01b0319166001600160a01b03909116178155928401516001840155908301516002808401919091556060840151918301919091556080830151600483015560a0830151600583015560c083015160068301805460ff198116921515928317825560e086015193919261ffff1990911661ff001990911617906101009084908111156108105761081061158f565b02179055506101009182015160079091015560008281526003602081905260408220600480546001818101835594829052825460089091027f8a35acfbc15ff81a39ae7d344fd709f28e8600b4aa8c65c6b64bfe7fe36bd19b810180546001600160a01b0319166001600160a01b03909316929092178255948301547f8a35acfbc15ff81a39ae7d344fd709f28e8600b4aa8c65c6b64bfe7fe36bd19c8601556002808401547f8a35acfbc15ff81a39ae7d344fd709f28e8600b4aa8c65c6b64bfe7fe36bd19d870155938301547f8a35acfbc15ff81a39ae7d344fd709f28e8600b4aa8c65c6b64bfe7fe36bd19e860155908201547f8a35acfbc15ff81a39ae7d344fd709f28e8600b4aa8c65c6b64bfe7fe36bd19f85015560058201547f8a35acfbc15ff81a39ae7d344fd709f28e8600b4aa8c65c6b64bfe7fe36bd1a08501556006820180547f8a35acfbc15ff81a39ae7d344fd709f28e8600b4aa8c65c6b64bfe7fe36bd1a1909501805460ff968716151560ff198216811783559254949793969484900490941694909361ff001990921661ffff1990921691909117919084908111156109c4576109c461158f565b0217905550600791820154910155600254604051630532f66960e41b8152600481018490528a151560248201526001600160a01b039091169063532f669090604401600060405180830381600087803b158015610a2057600080fd5b505af1158015610a34573d6000803e3d6000fd5b50505050610a5d3330858e610a4991906117ff565b6001546001600160a01b031692919061127d565b604080518c8152602081018c9052908101839052606081018990528915156080820152339082907fc02af1b539b8ee86feac34b2c39a742c750dfd4ec0dbeff65f449a8860d806069060a00160405180910390a35050505050505050505050565b610ac6611250565b610ad060006112ea565b565b600082815260036020908152604080832033845260059092529091205460ff168080610b07575081546001600160a01b031633145b610b685760405162461bcd60e51b815260206004820152602c60248201527f4e6f7420746865207472616465206f776e6572206f7220616e20617574686f7260448201526b34bd32b21036b0b730b3b2b960a11b60648201526084016104a3565b60016006830154610100900460ff166002811115610b8857610b8861158f565b14158015610bb4575060026006830154610100900460ff166002811115610bb157610bb161158f565b14155b610bf75760405162461bcd60e51b8152602060048201526014602482015273151c98591948185b1c9958591e4818db1bdcd95960621b60448201526064016104a3565b81546001600160a01b03163303610c6d5760068201805461ff001916610100179055600782015460048054600192908110610c3457610c34611847565b60009182526020909120600660089092020101805461ff001916610100836002811115610c6357610c6361158f565b0217905550610cce565b60068201805461ff001916610200179055600782015460048054600292908110610c9957610c99611847565b60009182526020909120600660089092020101805461ff001916610100836002811115610cc857610cc861158f565b02179055505b6002546003830154600684015460405163ab906f1d60e01b8152600481019290925260ff16151560248201526001600160a01b039091169063ab906f1d90604401600060405180830381600087803b158015610d2957600080fd5b505af1158015610d3d573d6000803e3d6000fd5b50505050600080836004015485118015610d5b5750600684015460ff165b80610d795750836004015485108015610d795750600684015460ff16155b15610dc157506004830154600384015460019190610d978288611812565b610da1919061179a565b610dab9190611825565b8460030154610dba91906117ff565b9150610e00565b506004830154600384015460009190610dda8783611812565b610de4919061179a565b610dee9190611825565b8460030154610dfd91906117ff565b91505b60025460408051630519e1a560e41b815290516000926001600160a01b03169163519e1a509160048083019260209291908290030181865afa158015610e4a573d6000803e3d6000fd5b505050506040513d601f19601f82011682018060405250810190610e6e91906117b1565b90508115610ea457612710818660030154610e89919061179a565b610e939190611825565b610e9d9084611812565b9250610ece565b612710818660030154610eb7919061179a565b610ec19190611825565b610ecb90846117ff565b92505b8115610fb9576001546040516370a0823160e01b815230600482015284916001600160a01b0316906370a0823190602401602060405180830381865afa158015610f1c573d6000803e3d6000fd5b505050506040513d601f19601f82011682018060405250810190610f4091906117b1565b1015610f985760405162461bcd60e51b815260206004820152602160248201527f496e73756666696369656e742062616c616e636520696e204f72646572426f6f6044820152606b60f81b60648201526084016104a3565b8454600154610fb4916001600160a01b0391821691168561133a565b611097565b60015485546040516370a0823160e01b81526001600160a01b039182166004820152859291909116906370a0823190602401602060405180830381865afa158015611008573d6000803e3d6000fd5b505050506040513d601f19601f8201168201806040525081019061102c91906117b1565b101561107a5760405162461bcd60e51b815260206004820152601f60248201527f496e73756666696369656e742062616c616e636520666f72207472616465720060448201526064016104a3565b8454600154611097916001600160a01b039182169116308661127d565b84546003860154604080519182526020820189905281018590526001600160a01b039091169088907fde6cea522a9fa0b97ae4eacfb115f73ad7dfa1a72aaf825d46c57fb80dc8bc049060600160405180910390a350505050505050565b6110fd611250565b6001600160a01b03166000908152600560205260409020805460ff19169055565b60606004805480602002602001604051908101604052809291908181526020016000905b8282101561120957600084815260209081902060408051610120810182526008860290920180546001600160a01b03168352600181015493830193909352600280840154918301919091526003830154606083015260048301546080830152600583015460a0830152600683015460ff808216151560c085015292939260e085019261010090920416908111156111db576111db61158f565b60028111156111ec576111ec61158f565b815260200160078201548152505081526020019060010190611142565b50505050905090565b61121a611250565b6001600160a01b03811661124457604051631e4fbdf760e01b8152600060048201526024016104a3565b61124d816112ea565b50565b6000546001600160a01b03163314610ad05760405163118cdaa760e01b81523360048201526024016104a3565b6040516001600160a01b0384811660248301528381166044830152606482018390526112e49186918216906323b872dd906084015b604051602081830303815290604052915060e01b6020820180516001600160e01b038381831617835250505050611370565b50505050565b600080546001600160a01b038381166001600160a01b0319831681178455604051919092169283917f8be0079c531659141344cd1fd0a4f28419497f9722a3daafe3b4186f6b6457e09190a35050565b6040516001600160a01b0383811660248301526044820183905261136b91859182169063a9059cbb906064016112b2565b505050565b60006113856001600160a01b038416836113d3565b905080516000141580156113aa5750808060200190518101906113a8919061185d565b155b1561136b57604051635274afe760e01b81526001600160a01b03841660048201526024016104a3565b60606113e1838360006113ea565b90505b92915050565b60608147101561140f5760405163cd78605960e01b81523060048201526024016104a3565b600080856001600160a01b0316848660405161142b919061187a565b60006040518083038185875af1925050503d8060008114611468576040519150601f19603f3d011682016040523d82523d6000602084013e61146d565b606091505b509150915061147d868383611489565b925050505b9392505050565b60608261149e57611499826114e5565b611482565b81511580156114b557506001600160a01b0384163b155b156114de57604051639996b31560e01b81526001600160a01b03851660048201526024016104a3565b5080611482565b8051156114f55780518082602001fd5b604051630a12f52160e11b815260040160405180910390fd5b60405180610120016040528060006001600160a01b031681526020016000815260200160008152602001600081526020016000815260200160008152602001600015158152602001600060028111156115695761156961158f565b8152602001600081525090565b60006020828403121561158857600080fd5b5035919050565b634e487b7160e01b600052602160045260246000fd5b600381106115c357634e487b7160e01b600052602160045260246000fd5b9052565b6001600160a01b038a1681526020810189905260408101889052606081018790526080810186905260a0810185905283151560c0820152610120810161161060e08301856115a5565b826101008301529a9950505050505050505050565b60006020828403121561163757600080fd5b81356001600160a01b038116811461148257600080fd5b60018060a01b0381511682526020810151602083015260408101516040830152606081015160608301526080810151608083015260a081015160a083015260c0810151151560c083015260e08101516116aa60e08401826115a5565b5061010090810151910152565b61012081016113e4828461164e565b801515811461124d57600080fd5b600080600080608085870312156116ea57600080fd5b84359350602085013592506040850135611703816116c6565b9396929550929360600135925050565b6000806040838503121561172657600080fd5b50508035926020909101359150565b602080825282518282018190526000918401906040840190835b818110156117795761176283855161164e565b60209390930192610120929092019160010161174f565b509095945050505050565b634e487b7160e01b600052601160045260246000fd5b80820281158282048414176113e4576113e4611784565b6000602082840312156117c357600080fd5b5051919050565b600080604083850312156117dd57600080fd5b82516020840151909250600281106117f457600080fd5b809150509250929050565b808201808211156113e4576113e4611784565b818103818111156113e4576113e4611784565b60008261184257634e487b7160e01b600052601260045260246000fd5b500490565b634e487b7160e01b600052603260045260246000fd5b60006020828403121561186f57600080fd5b8151611482816116c6565b6000825160005b8181101561189b5760208186018101518583015201611881565b50600092019182525091905056fea26469706673582212206cea97cdd7d91fe6207b135f9d8f85654acce433419c20ece92c0da4cff50abf64736f6c634300081c0033",
    "linkReferences": {}
  },
  "methodIdentifiers": {
    "addManager(address)": "2d06177a",
    "allTrades(uint256)": "47ca9c33",
    "closeTrade(uint256,uint256)": "73b1caa3",
    "collateralAsset()": "aabaecd6",
    "fees()": "9af1d35a",
    "getAllTrades()": "ce99c0ce",
    "getTrade(uint256)": "2db25e05",
    "openTrade(uint256,uint256,bool,uint256)": "6ded9707",
    "owner()": "8da5cb5b",
    "removeManager(address)": "ac18de43",
    "renounceOwnership()": "715018a6",
    "trades(uint256)": "1e6c598e",
    "transferOwnership(address)": "f2fde38b"
  },
  "id": 54
}