{"abi":[{"type":"constructor","inputs":[{"name":"_fees","type":"address","internalType":"address"},{"name":"_priceCacheDuration","type":"uint256","internalType":"uint256"},{"name":"_collateralAsset","type":"address","internalType":"address"},{"name":"_collateralDecimals","type":"uint256","internalType":"uint256"},{"name":"_maxLeverage","type":"uint256","internalType":"uint256"}],"stateMutability":"nonpayable"},{"type":"receive","stateMutability":"payable"},{"type":"function","name":"allTrades","inputs":[{"name":"","type":"uint256","internalType":"uint256"}],"outputs":[{"name":"trader","type":"address","internalType":"address"},{"name":"collateralAmount","type":"uint256","internalType":"uint256"},{"name":"leverage","type":"uint256","internalType":"uint256"},{"name":"positionSize","type":"uint256","internalType":"uint256"},{"name":"price","type":"uint256","internalType":"uint256"},{"name":"timestamp","type":"uint256","internalType":"uint256"},{"name":"isLong","type":"bool","internalType":"bool"},{"name":"isClosed","type":"bool","internalType":"bool"},{"name":"tradeId","type":"uint256","internalType":"uint256"}],"stateMutability":"view"},{"type":"function","name":"closeTrade","inputs":[{"name":"_tradeId","type":"uint256","internalType":"uint256"},{"name":"_price","type":"uint256","internalType":"uint256"}],"outputs":[],"stateMutability":"nonpayable"},{"type":"function","name":"collateralAsset","inputs":[],"outputs":[{"name":"","type":"address","internalType":"contract IERC20"}],"stateMutability":"view"},{"type":"function","name":"fees","inputs":[],"outputs":[{"name":"","type":"address","internalType":"contract IFees"}],"stateMutability":"view"},{"type":"function","name":"getAllTrades","inputs":[],"outputs":[{"name":"","type":"tuple[]","internalType":"struct IOrderBook.Trade[]","components":[{"name":"trader","type":"address","internalType":"address"},{"name":"collateralAmount","type":"uint256","internalType":"uint256"},{"name":"leverage","type":"uint256","internalType":"uint256"},{"name":"positionSize","type":"uint256","internalType":"uint256"},{"name":"price","type":"uint256","internalType":"uint256"},{"name":"timestamp","type":"uint256","internalType":"uint256"},{"name":"isLong","type":"bool","internalType":"bool"},{"name":"isClosed","type":"bool","internalType":"bool"},{"name":"tradeId","type":"uint256","internalType":"uint256"}]}],"stateMutability":"view"},{"type":"function","name":"getTrade","inputs":[{"name":"_tradeId","type":"uint256","internalType":"uint256"}],"outputs":[{"name":"","type":"tuple","internalType":"struct IOrderBook.Trade","components":[{"name":"trader","type":"address","internalType":"address"},{"name":"collateralAmount","type":"uint256","internalType":"uint256"},{"name":"leverage","type":"uint256","internalType":"uint256"},{"name":"positionSize","type":"uint256","internalType":"uint256"},{"name":"price","type":"uint256","internalType":"uint256"},{"name":"timestamp","type":"uint256","internalType":"uint256"},{"name":"isLong","type":"bool","internalType":"bool"},{"name":"isClosed","type":"bool","internalType":"bool"},{"name":"tradeId","type":"uint256","internalType":"uint256"}]}],"stateMutability":"view"},{"type":"function","name":"openTrade","inputs":[{"name":"_collateralAmount","type":"uint256","internalType":"uint256"},{"name":"_leverage","type":"uint256","internalType":"uint256"},{"name":"_isLong","type":"bool","internalType":"bool"},{"name":"_price","type":"uint256","internalType":"uint256"}],"outputs":[],"stateMutability":"nonpayable"},{"type":"function","name":"trades","inputs":[{"name":"","type":"uint256","internalType":"uint256"}],"outputs":[{"name":"trader","type":"address","internalType":"address"},{"name":"collateralAmount","type":"uint256","internalType":"uint256"},{"name":"leverage","type":"uint256","internalType":"uint256"},{"name":"positionSize","type":"uint256","internalType":"uint256"},{"name":"price","type":"uint256","internalType":"uint256"},{"name":"timestamp","type":"uint256","internalType":"uint256"},{"name":"isLong","type":"bool","internalType":"bool"},{"name":"isClosed","type":"bool","internalType":"bool"},{"name":"tradeId","type":"uint256","internalType":"uint256"}],"stateMutability":"view"},{"type":"event","name":"TradeClosed","inputs":[{"name":"tradeId","type":"uint256","indexed":true,"internalType":"uint256"},{"name":"trader","type":"address","indexed":true,"internalType":"address"},{"name":"closedPositionSize","type":"uint256","indexed":false,"internalType":"uint256"},{"name":"price","type":"uint256","indexed":false,"internalType":"uint256"},{"name":"returnedCollateral","type":"uint256","indexed":false,"internalType":"uint256"}],"anonymous":false},{"type":"event","name":"TradeOpened","inputs":[{"name":"tradeId","type":"uint256","indexed":true,"internalType":"uint256"},{"name":"trader","type":"address","indexed":true,"internalType":"address"},{"name":"collateralAmount","type":"uint256","indexed":false,"internalType":"uint256"},{"name":"leverage","type":"uint256","indexed":false,"internalType":"uint256"},{"name":"positionSize","type":"uint256","indexed":false,"internalType":"uint256"},{"name":"price","type":"uint256","indexed":false,"internalType":"uint256"},{"name":"isLong","type":"bool","indexed":false,"internalType":"bool"}],"anonymous":false},{"type":"error","name":"AddressEmptyCode","inputs":[{"name":"target","type":"address","internalType":"address"}]},{"type":"error","name":"AddressInsufficientBalance","inputs":[{"name":"account","type":"address","internalType":"address"}]},{"type":"error","name":"FailedInnerCall","inputs":[]},{"type":"error","name":"SafeERC20FailedOperation","inputs":[{"name":"token","type":"address","internalType":"address"}]}],"bytecode":{"object":"0x6080604052348015600f57600080fd5b5060405161156f38038061156f833981016040819052602c916088565b600180546001600160a01b03199081166001600160a01b039788161790915560049490945560008054909416929094169190911790915560055560065560d3565b80516001600160a01b0381168114608357600080fd5b919050565b600080600080600060a08688031215609f57600080fd5b60a686606d565b6020870151909550935060ba60408701606d565b6060870151608090970151959894975095949392505050565b61148d806100e26000396000f3fe60806040526004361061007f5760003560e01c806373b1caa31161004e57806373b1caa3146101c85780639af1d35a146101e8578063aabaecd614610220578063ce99c0ce1461024057600080fd5b80631e6c598e1461008b5780632db25e051461015957806347ca9c33146101865780636ded9707146101a657600080fd5b3661008657005b600080fd5b34801561009757600080fd5b506101026100a63660046111cc565b6002602081905260009182526040909120805460018201549282015460038301546004840154600585015460068601546007909601546001600160a01b039095169695939492939192909160ff80821692610100909204169089565b604080516001600160a01b03909a168a5260208a0198909852968801959095526060870193909352608086019190915260a0850152151560c0840152151560e0830152610100820152610120015b60405180910390f35b34801561016557600080fd5b506101796101743660046111cc565b610262565b604051610150919061124f565b34801561019257600080fd5b506101026101a13660046111cc565b610349565b3480156101b257600080fd5b506101c66101c136600461126c565b6103b6565b005b3480156101d457600080fd5b506101c66101e33660046112ab565b6109b3565b3480156101f457600080fd5b50600154610208906001600160a01b031681565b6040516001600160a01b039091168152602001610150565b34801561022c57600080fd5b50600054610208906001600160a01b031681565b34801561024c57600080fd5b50610255610ebe565b60405161015091906112cd565b6102be60405180610120016040528060006001600160a01b031681526020016000815260200160008152602001600081526020016000815260200160008152602001600015158152602001600015158152602001600081525090565b5060009081526002602081815260409283902083516101208101855281546001600160a01b0316815260018201549281019290925291820154928101929092526003810154606083015260048101546080830152600581015460a0830152600681015460ff808216151560c08501526101009182900416151560e08401526007909101549082015290565b6003818154811061035957600080fd5b6000918252602090912060089091020180546001820154600283015460038401546004850154600586015460068701546007909701546001600160a01b0390961697509395929491939092909160ff808316926101009004169089565b6000831180156103c857506006548311155b61040c5760405162461bcd60e51b815260206004820152601060248201526f496e76616c6964206c6576657261676560801b60448201526064015b60405180910390fd5b60006104188486611332565b90506000600160009054906101000a90046001600160a01b03166001600160a01b0316633e3662166040518163ffffffff1660e01b8152600401602060405180830381865afa15801561046f573d6000803e3d6000fd5b505050506040513d601f19601f820116820180604052508101906104939190611349565b61049f90612710611332565b60015460408051629b8a5960e21b8152815193945060009384936001600160a01b03169263026e296492600480820193918290030181865afa1580156104e9573d6000803e3d6000fd5b505050506040513d601f19601f8201168201806040525081019061050d9190611362565b9150915081600014610591578580156105375750600081600181111561053557610535611397565b145b1561054d5761054682846113ad565b9250610591565b8515801561056c5750600181600181111561056a5761056a611397565b145b1561057b5761054682846113ad565b81831061058c5761054682846113c0565b600092505b60006127106105a081866113d3565b6105aa9087611332565b6105b491906113d3565b905060006105c282876113c0565b90506105ce828b6113ad565b6000546040516370a0823160e01b81523360048201526001600160a01b03909116906370a0823190602401602060405180830381865afa158015610616573d6000803e3d6000fd5b505050506040513d601f19601f8201168201806040525081019061063a9190611349565b101561067f5760405162461bcd60e51b8152602060048201526014602482015273496e73756666696369656e742062616c616e636560601b6044820152606401610403565b60006003805490509050604051806101200160405280336001600160a01b031681526020018c81526020018b81526020018381526020018981526020014281526020018a15158152602001600015158152602001828152506002600083815260200190815260200160002060008201518160000160006101000a8154816001600160a01b0302191690836001600160a01b031602179055506020820151816001015560408201518160020155606082015181600301556080820151816004015560a0820151816005015560c08201518160060160006101000a81548160ff02191690831515021790555060e08201518160060160016101000a81548160ff021916908315150217905550610100820151816007015590505060036002600083815260200190815260200160002090806001815401808255809150506001900390600052602060002090600802016000909190919091506000820160009054906101000a90046001600160a01b03168160000160006101000a8154816001600160a01b0302191690836001600160a01b0316021790555060018201548160010155600282015481600201556003820154816003015560048201548160040155600582015481600501556006820160009054906101000a900460ff168160060160006101000a81548160ff0219169083151502179055506006820160019054906101000a900460ff168160060160016101000a81548160ff021916908315150217905550600782015481600701555050600160009054906101000a90046001600160a01b03166001600160a01b031663532f6690838b6040518363ffffffff1660e01b81526004016108fb9291909182521515602082015260400190565b600060405180830381600087803b15801561091557600080fd5b505af1158015610929573d6000803e3d6000fd5b505050506109523330858e61093e91906113ad565b6000546001600160a01b0316929190610f88565b604080518c8152602081018c9052908101839052606081018990528915156080820152339082907fc02af1b539b8ee86feac34b2c39a742c750dfd4ec0dbeff65f449a8860d806069060a00160405180910390a35050505050505050505050565b600082815260026020526040902080546001600160a01b03163314610a105760405162461bcd60e51b81526020600482015260136024820152722737ba103a3432903a3930b2329037bbb732b960691b6044820152606401610403565b6006810154610100900460ff1615610a615760405162461bcd60e51b8152602060048201526014602482015273151c98591948185b1c9958591e4818db1bdcd95960621b6044820152606401610403565b60068101805461ff001916610100179055600781015460038054600192908110610a8d57610a8d6113f5565b600091825260209091206006600890920201810180549215156101000261ff00199093169290921790915560015460038301549183015460405163ab906f1d60e01b8152600481019390935260ff16151560248301526001600160a01b03169063ab906f1d90604401600060405180830381600087803b158015610b1057600080fd5b505af1158015610b24573d6000803e3d6000fd5b50505050600080826004015484118015610b425750600683015460ff165b80610b605750826004015484108015610b605750600683015460ff16155b15610ba857506004820154600383015460019190610b7e82876113c0565b610b889190611332565b610b9291906113d3565b8360030154610ba191906113ad565b9150610be7565b506004820154600383015460009190610bc186836113c0565b610bcb9190611332565b610bd591906113d3565b8360030154610be491906113ad565b91505b60015460408051630519e1a560e41b815290516000926001600160a01b03169163519e1a509160048083019260209291908290030181865afa158015610c31573d6000803e3d6000fd5b505050506040513d601f19601f82011682018060405250810190610c559190611349565b90508115610c8b57612710818560030154610c709190611332565b610c7a91906113d3565b610c8490846113c0565b9250610cb5565b612710818560030154610c9e9190611332565b610ca891906113d3565b610cb290846113ad565b92505b8115610d9b576000546040516370a0823160e01b815230600482015284916001600160a01b0316906370a0823190602401602060405180830381865afa158015610d03573d6000803e3d6000fd5b505050506040513d601f19601f82011682018060405250810190610d279190611349565b1015610d7f5760405162461bcd60e51b815260206004820152602160248201527f496e73756666696369656e742062616c616e636520696e204f72646572426f6f6044820152606b60f81b6064820152608401610403565b600054610d96906001600160a01b03163385610ff5565b610e6d565b6000546040516370a0823160e01b815233600482015284916001600160a01b0316906370a0823190602401602060405180830381865afa158015610de3573d6000803e3d6000fd5b505050506040513d601f19601f82011682018060405250810190610e079190611349565b1015610e555760405162461bcd60e51b815260206004820152601f60248201527f496e73756666696369656e742062616c616e636520666f7220747261646572006044820152606401610403565b600054610e6d906001600160a01b0316333086610f88565b600384015460408051918252602082018790528101849052339087907fde6cea522a9fa0b97ae4eacfb115f73ad7dfa1a72aaf825d46c57fb80dc8bc049060600160405180910390a3505050505050565b60606003805480602002602001604051908101604052809291908181526020016000905b82821015610f7f57600084815260209081902060408051610120810182526008860290920180546001600160a01b03168352600180820154848601526002820154928401929092526003810154606084015260048101546080840152600581015460a0840152600681015460ff808216151560c08601526101009182900416151560e0850152600790910154908301529083529092019101610ee2565b50505050905090565b6040516001600160a01b038481166024830152838116604483015260648201839052610fef9186918216906323b872dd906084015b604051602081830303815290604052915060e01b6020820180516001600160e01b03838183161783525050505061102b565b50505050565b6040516001600160a01b0383811660248301526044820183905261102691859182169063a9059cbb90606401610fbd565b505050565b60006110406001600160a01b0384168361108e565b90508051600014158015611065575080806020019051810190611063919061140b565b155b1561102657604051635274afe760e01b81526001600160a01b0384166004820152602401610403565b606061109c838360006110a5565b90505b92915050565b6060814710156110ca5760405163cd78605960e01b8152306004820152602401610403565b600080856001600160a01b031684866040516110e69190611428565b60006040518083038185875af1925050503d8060008114611123576040519150601f19603f3d011682016040523d82523d6000602084013e611128565b606091505b5091509150611138868383611144565b925050505b9392505050565b60608261115957611154826111a0565b61113d565b815115801561117057506001600160a01b0384163b155b1561119957604051639996b31560e01b81526001600160a01b0385166004820152602401610403565b508061113d565b8051156111b05780518082602001fd5b604051630a12f52160e11b815260040160405180910390fd5b50565b6000602082840312156111de57600080fd5b5035919050565b60018060a01b0381511682526020810151602083015260408101516040830152606081015160608301526080810151608083015260a081015160a083015260c0810151151560c083015260e081015161124260e084018215159052565b5061010090810151910152565b610120810161109f82846111e5565b80151581146111c957600080fd5b6000806000806080858703121561128257600080fd5b8435935060208501359250604085013561129b8161125e565b9396929550929360600135925050565b600080604083850312156112be57600080fd5b50508035926020909101359150565b602080825282518282018190526000918401906040840190835b81811015611311576112fa8385516111e5565b6020939093019261012092909201916001016112e7565b509095945050505050565b634e487b7160e01b600052601160045260246000fd5b808202811582820484141761109f5761109f61131c565b60006020828403121561135b57600080fd5b5051919050565b6000806040838503121561137557600080fd5b825160208401519092506002811061138c57600080fd5b809150509250929050565b634e487b7160e01b600052602160045260246000fd5b8082018082111561109f5761109f61131c565b8181038181111561109f5761109f61131c565b6000826113f057634e487b7160e01b600052601260045260246000fd5b500490565b634e487b7160e01b600052603260045260246000fd5b60006020828403121561141d57600080fd5b815161113d8161125e565b6000825160005b81811015611449576020818601810151858301520161142f565b50600092019182525091905056fea26469706673582212201c8eb7ec5d4fbb35c6e3f041ee36485bf4cc0db67eb230532ad76cf89e38f8b164736f6c634300081c0033","linkReferences":{}},"methodIdentifiers":{"allTrades(uint256)":"47ca9c33","closeTrade(uint256,uint256)":"73b1caa3","collateralAsset()":"aabaecd6","fees()":"9af1d35a","getAllTrades()":"ce99c0ce","getTrade(uint256)":"2db25e05","openTrade(uint256,uint256,bool,uint256)":"6ded9707","trades(uint256)":"1e6c598e"},"id":25}